:020000040800F2
:1000000000280020A1160008751500087B150008BF
:1000100081150008871500088D15000800000000F4
:100020000000000000000000000000009315000820
:100030009F15000800000000AB150008B715000868
:10004000E9160008E9160008E9160008E916000894
:10005000E9160008E9160008E9160008E916000884
:10006000E9160008E9160008E9160008E916000874
:10007000E9160008E9160008E9160008E916000864
:10008000E9160008E9160008E9160008E916000854
:10009000E9160008E9160008E9160008E916000844
:1000A000E9160008E9160008E9160008E916000834
:1000B000C5150008E916000800000000E916000850
:1000C000E91600080000000000000000E916000822
:1000D00000000000E9160008E91600080000000012
:1000E000E9160008E9160008E916000800000000FB
:1000F0000000000000000000000000000000000000
:0C01000000000000000000005FF808F1A3
:10010C0010B5054C237833B9044B13B10448AFF345
:10011C0000800123237010BD50000020000000005F
:10012C00182D000808B5034B1BB103490348AFF366
:10013C00008008BD0000000054000020182D0008AD
:10014C0080B582B000AF786000224FF47E415848F1
:10015C0001F0C7FD01224FF47E41564801F0C1FD6C
:10016C007B68092B00F2A08001A252F823F000BF9B
:10017C00A5010008B3010008F10100080B020008FA
:10018C00250200084B0200086502000873020008F3
:10019C00B3020008A502000801224FF400414448B4
:1001AC0001F09FFD80E001224FF40071404801F006
:1001BC0098FD01224FF480513D4801F092FD01223F
:1001CC004FF400513A4801F08CFD01224FF480416C
:1001DC00374801F086FD01224FF40041344801F00C
:1001EC0080FD61E001224FF48041314801F079FD3E
:1001FC0001224FF400612E4801F073FD54E00122FE
:10020C004FF480412A4801F06CFD01224FF400515B
:10021C00274801F066FD47E001224FF400712448A5
:10022C0001F05FFD01224FF48051214801F059FD8E
:10023C0001224FF400511E4801F053FD34E001221D
:10024C004FF480611A4801F04CFD01224FF400512B
:10025C00174801F046FD27E001224FF48061144855
:10026C0001F03FFD20E001224FF48051104801F0D5
:10027C0038FD01224FF400510D4801F032FD0122EE
:10028C004FF480410A4801F02CFD01224FF400414B
:10029C00074801F026FD07E001224FF40051044805
:1002AC0001F01FFD00E000BF00BF0837BD4680BD58
:1002BC0000080140000C014080B582B000AF7860AE
:1002CC0000224FF47E41584801F00BFD01224FF4FF
:1002DC007E41564801F005FD7B68092B00F2A08099
:1002EC0001A252F823F000BF1D0300082B030008E5
:1002FC0069030008830300089D030008C30300087A
:10030C00DD030008EB0300082B0400081D040008A3
:10031C0001224FF40041444801F0E3FC80E001224B
:10032C004FF40071404801F0DCFC01224FF4805185
:10033C003D4801F0D6FC01224FF400513A4801F03F
:10034C00D0FC01224FF48041374801F0CAFC012255
:10035C004FF40041344801F0C4FC61E001224FF439
:10036C008041314801F0BDFC01224FF400612E4860
:10037C0001F0B7FC54E001224FF480412A4801F00F
:10038C00B0FC01224FF40051274801F0AAFC47E0D1
:10039C0001224FF40071244801F0A3FC01224FF418
:1003AC008051214801F09DFC01224FF400511E4860
:1003BC0001F097FC34E001224FF480611A4801F0FF
:1003CC0090FC01224FF40051174801F08AFC27E001
:1003DC0001224FF48061144801F083FC20E00122DB
:1003EC004FF48051104801F07CFC01224FF4005175
:1003FC000D4801F076FC01224FF480410A4801F0CF
:10040C0070FC01224FF40041074801F06AFC07E040
:10041C0001224FF40051044801F063FC00E000BFDE
:10042C0000BF0837BD4680BD000C014000080140EC
:10043C0080B582B000AF78607B68032B7AD801A2BC
:10044C0052F823F06104000899040008D104000854
:10045C000905000800228021384801F042FC0122E5
:10046C004FF48071354801F03CFC00228021344867
:10047C0001F037FC00224FF48071314801F031FC5F
:10048C00304B1B681846FFF75BFE53E001228021BE
:10049C002A4801F026FC00224FF48071274801F015
:1004AC0020FC00228021264801F01BFC00224FF486
:1004BC008071234801F015FC224B5B681846FFF74E
:1004CC003FFE37E0002280211C4801F00AFC00228C
:1004DC004FF48071194801F004FC00228021184867
:1004EC0001F0FFFB01224FF48071154801F0F9FB7C
:1004FC00144B9B681846FFF7DFFE1BE0002280219F
:10050C000E4801F0EEFB00224FF480710B4801F015
:10051C00E8FB012280210A4801F0E3FB00224FF4A2
:10052C008071074801F0DDFB064BDB681846FFF7CE
:10053C00C3FE00BF00BF0837BD4680BD00080140A8
:10054C00000C01406C00002080B582B000AF7860D8
:10055C0039607B68092B17DD7B68364A82FB0312F6
:10056C009210DB17D31A344A13607968314B83FB32
:10057C0001239A10CB17D21A13469B0013445B002D
:10058C00CA1A2D4B5A6013E07B68092B10DC2A4BDE
:10059C0000221A607968274B83FB01239A10CB1732
:1005AC00D21A13469B0013445B00CA1A224B5A60A2
:1005BC003B68092B17DD3B681E4A82FB0312921025
:1005CC00DB17D31A1C4A936039681A4B83FB01233F
:1005DC009A10CB17D21A13469B0013445B00CA1A0D
:1005EC00154BDA6013E03B68092B10DC124B002230
:1005FC009A6039680F4B83FB01239A10CB17D21AE0
:10060C0013469B0013445B00CA1A0B4BDA600B4B6E
:10061C001B68032B02DD094B00221A60074B1B6879
:10062C005A1C06490A601846FFF702FF00BF08373C
:10063C00BD4680BD676666666C0000207C000020AD
:10064C0080B582B000AF00237B6089E0494A7B68AB
:10065C0052F8232048497B6841F82320474A7B689D
:10066C0052F8232043497B6841F823207B68002BF8
:10067C000AD10821424801F01DFB034619463F4AA6
:10068C007B6842F823101AE07B68012B0AD11021F9
:10069C003B4801F00FFB03461946384A7B6842F889
:1006AC0023100CE07B68022B09D12021344801F087
:1006BC0001FB03461946314A7B6842F823102D4A48
:1006CC007B6852F823202D497B6851F823309A42DD
:1006DC0043D1284A7B6852F8232027497B6851F87C
:1006EC0023309A4239D1244A7B6852F82320254979
:1006FC007B6851F823309A4217D01F4A7B6852F816
:10070C00232020497B6841F823201E4A7B6852F83D
:10071C002330002B21D11C4B4FF4FA721A601B4A68
:10072C007B68012142F8231017E0174B1B68013B33
:10073C00154A1360144B1B68002B0ED1124B4FF44F
:10074C00FA721A600F4A7B6852F82330002B04D1DE
:10075C000E4A7B68012142F823107B6801337B60D1
:10076C007B68022B7FF772AF00BF00BF0837BD4616
:10077C0080BD00BF0C0000201800002000000020ED
:10078C00000C0140240000203000002080000020DC
:10079C0080B500AF884B1B68042B00F2028201A2CB
:1007AC0052F823F0C5070008ED090008CF0A00082D
:1007BC0001080008E30800087F4B03221A607F4BF6
:1007CC0000221A607E4B1B681946002000F004FFC3
:1007DC000A21012000F000FF0A21022000F0FCFE9B
:1007EC004FF47A71032000F0F7FE0A21042000F088
:1007FC00F3FEDFE100F0E2FC032000F03BFF0346D8
:10080C00012B2AD16F4B1B68013B6E4A13606E4B58
:10081C001B68013B6C4A13606A4B1B68002B09DC9C
:10082C00674B1B68694A82FB03129211DB17D31AC0
:10083C00644A1360644B1B68002B09DC644B1B6817
:10084C00624A82FB03129211DB17D31A5E4A1360C1
:10085C004FF47A71032000F0BFFE022000F00AFF73
:10086C000346012B0BD1574B1B68574A1268114694
:10087C001846FFF769FEFA21022000F0ADFE0020B9
:10088C0000F0F8FE0346012B08D14B4B04221A60F2
:10089C00504B1B681946002000F09EFE474B1B680E
:1008AC00012B40F08081444B0B221A6042F21071F4
:1008BC00012000F091FE0A21022000F08DFE0A2199
:1008CC00042000F089FE0121434801F022FA3B4B41
:1008DC0000221A6067E100F081FC002000F0CAFEE3
:1008EC000346012B08D1344B01221A60344B1B6890
:1008FC001946002000F070FE032000F0BBFE0346FA
:10090C00012B2AD1354B1B68013B344A13602E4B0B
:10091C001B68013B2C4A1360304B1B68002B09DC15
:10092C002C4B1B68294A82FB03129211DB17D31A3A
:10093C002A4A1360244B1B68002B09DC244B1B68D0
:10094C00224A82FB03129211DB17D31A1E4A136040
:10095C004FF47A71032000F03FFE022000F08AFE73
:10096C000346012B0BD11D4B1B68174A126811460D
:10097C001846FFF7E9FDFA21022000F02DFE0F4B7F
:10098C001B68012B40F011810B4B0B221A6042F2B9
:10099C001071012000F020FE0A21022000F01CFE44
:1009AC000A21042000F018FE01210B4801F0B1F9D6
:1009BC00024B00221A60F8E08C000020800000201E
:1009CC003C000020E0000020E8000020D34D621025
:1009DC003400002038000020000C0140E40000200E
:1009EC0000F00CFC002000F045FE0346012B08D162
:1009FC00714B02221A60714B1B681946002000F0E3
:100A0C00EBFD032000F036FE0346012B2AD16C4B84
:100A1C001B68013B6A4A13606A4B1B68013B694ABD
:100A2C001360674B1B68002B09DC674B1B68674A1C
:100A3C0082FB03129211DB17D31A614A1360614BCC
:100A4C001B68002B09DC624B1B68604A82FB03129B
:100A5C009211DB17D31A5B4A13604FF47A7103209F
:100A6C0000F0BAFD022000F005FE0346012B0BD16D
:100A7C00544B1B68524A126811461846FFF764FD26
:100A8C00FA21022000F0A8FD524B1B68012B40F00C
:100A9C008E80494B0B221A6042F21071012000F03B
:100AAC009BFD0A21022000F097FD0A21042000F092
:100ABC0093FD0121484801F02CF9464B00221A60A5
:100ACC0075E000F0ABFB002000F0D4FD0346012BD9
:100ADC0008D1394B03221A603B4B1B681946002086
:100AEC0000F07AFD032000F0C5FD0346012B2AD14E
:100AFC003A4B1B68013B394A1360324B1B68013B74
:100B0C00304A1360354B1B68002B09DC2B4B1B68E0
:100B1C002E4A82FB03129211DB17D31A2F4A136051
:100B2C00284B1B68002B09DC294B1B68274A82FBCE
:100B3C0003129211DB17D31A224A13604FF47A7105
:100B4C00032000F049FD022000F094FD0346012B28
:100B5C000BD11C4B1B68214A126811461846FFF733
:100B6C00F3FCFA21022000F037FD1A4B1B68012B15
:100B7C001FD1114B0B221A6042F21071012000F0B0
:100B8C002BFD0A21022000F027FD0A21042000F091
:100B9C0023FD0121104801F0BCF80E4B00221A6015
:100BAC0007E000BF06E000BF04E000BF02E000BFAA
:100BBC0000E000BF00BF80BD8C000020380000208A
:100BCC00E0000020E80000203C000020D34D621023
:100BDC003400002080000020000C0140E4000020C4
:100BEC0080B500AF734B1B680D2B00F0EF810D2B04
:100BFC0000F3C5820B2B03D00C2B00F0F180BEE26E
:100C0C006D4B1B68012B12D16A4B0C221A6042F2FD
:100C1C001071012000F0E0FCFA21042000F0DCFC53
:100C2C000121664801F075F8634B00221A60624B93
:100C3C005B68012B1CD1624B1B68624A93420BDC34
:100C4C005F4B1B6803F57A735D4A13605E4B1B6840
:100C5C0003F57A735C4A136042F21071012000F0C4
:100C6C00BBFC0221554801F054F8534B00225A604A
:100C7C00514B9B68012B39D14E4B03221A60524BBE
:100C8C001B68524A82FB03129211DB17D31A504A8B
:100C9C0013604B4B1B684D4A82FB03129211DB17FE
:100CAC00D31A4C4A13604C4B1B68484A82FB031204
:100CBC009211DB17D31A494A13603F4B00221A607A
:100CCC003D4B00229A60404B1B681946002000F0F7
:100CDC0083FC0A21022000F07FFC4FF47A71032080
:100CEC0000F07AFC0421354801F013F8012000F0E3
:100CFC00C1FC0346012B32D12E4B03221A60324B1E
:100D0C001B68324A82FB03129211DB17D31A304A4A
:100D1C0013602B4B1B682D4A82FB03129211DB17BD
:100D2C00D31A2C4A13602C4B1B68284A82FB0312E3
:100D3C009211DB17D31A294A13601F4B00221A6039
:100D4C00214B1B681946002000F046FC0A210220AA
:100D5C0000F042FC4FF47A71032000F03DFC0220BD
:100D6C0000F088FC0346012B16D1174B1B68174A61
:100D7C0082FB03129211DB17D01A114B1B68134A1A
:100D8C0082FB03129211DB17D31A1946FFF7DCFB17
:100D9C00FA21022000F020FC042000F06BFC03463A
:100DAC00012B40F0EE8100F049FAFA21042000F00A
:100DBC0013FCE6E18C00002080000020000C0140B8
:100DCC0034000020B78201003C000020D34D62109B
:100DDC00E0000020E800002038000020E4000020A3
:100DEC006F4B1B68012B12D16E4B0D221A6042F215
:100DFC001071012000F0F0FBFA21042000F0ECFB54
:100E0C000121694800F085FF654B00221A60644B94
:100E1C005B68012B22D1654B1B68654A934211DC40
:100E2C00644B1A68644B1B689A420BDA614B1B6863
:100E3C0003F57A735F4A13605C4B1B6803F57A7396
:100E4C005A4A136042F21071012000F0C5FB0221D6
:100E5C00554800F05EFF524B00225A60504B9B6885
:100E6C00012B39D14F4B03221A60534B1B68534A49
:100E7C0082FB03129211DB17D31A514A13604B4BAE
:100E8C001B684E4A82FB03129211DB17D31A4D4A90
:100E9C001360484B1B68494A82FB03129211DB1703
:100EAC00D31A494A13603E4B00221A603C4B002275
:100EBC009A60414B1B681946002000F08DFB0A21FB
:100ECC00022000F089FB4FF47A71032000F084FBC0
:100EDC000421354800F01DFF012000F0CBFB034638
:100EEC00012B32D12F4B03221A60334B1B68334A30
:100EFC0082FB03129211DB17D31A314A13602B4B6E
:100F0C001B682E4A82FB03129211DB17D31A2D4A4F
:100F1C001360284B1B68294A82FB03129211DB17C2
:100F2C00D31A294A1360244B1B681946002000F081
:100F3C0053FB0A21022000F04FFB4FF47A7103207F
:100F4C0000F04AFB164B00221A60022000F092FBC4
:100F5C000346012B16D1174B1B68184A82FB031250
:100F6C009211DB17D01A114B1B68144A82FB031227
:100F7C009211DB17D31A1946FFF7E6FAFA21022071
:100F8C0000F02AFB042000F075FB0346012B40F017
:100F9C00FA8000F063F9FA21042000F01DFBF2E066
:100FAC00800000208C000020000C01403400002048
:100FBC00B7820100380000203C000020D34D6210A5
:100FCC00E0000020E8000020E4000020704B1B68CB
:100FDC00012B12D16F4B0B221A6042F210710120BF
:100FEC0000F0FAFAFA21042000F0F6FA01216A481E
:100FFC0000F08FFE664B00221A60654B5B68012B7C
:10100C001CD1664B1B68664A93420BDC654B1B6814
:10101C0003F57A73634A1360604B1B6803F57A73AC
:10102C005E4A136042F21071012000F0D5FA0221E1
:10103C00594800F06EFE564B00225A60544B9B6888
:10104C00012B39D1534B03221A60564B1B68564A5D
:10105C0082FB03129211DB17D31A544A13604F4BC5
:10106C001B68514A82FB03129211DB17D31A504AA8
:10107C001360504B1B684C4A82FB03129211DB1716
:10108C00D31A4D4A1360424B00221A60404B002287
:10109C009A60444B1B681946002000F09DFA0A2107
:1010AC00022000F099FA4FF47A71032000F094FAC0
:1010BC000421394800F02DFE012000F0DBFA034634
:1010CC00012B32D1334B03221A60364B1B68364A44
:1010DC0082FB03129211DB17D31A344A13602F4B85
:1010EC001B68314A82FB03129211DB17D31A304A68
:1010FC001360304B1B682C4A82FB03129211DB17D6
:10110C00D31A2D4A1360274B1B681946002000F098
:10111C0063FA0A21022000F05FFA4FF47A7103207F
:10112C0000F05AFA1A4B00221A60022000F0A2FAC0
:10113C000346012B16D1194B1B681B4A82FB031269
:10114C009211DB17D01A174B1B68174A82FB03123C
:10115C009211DB17D31A1946FFF7F6F9FA21022080
:10116C0000F03AFA042000F085FA0346012B0CD16A
:10117C0000F084F8FA21042000F02EFA05E000BFFC
:10118C0004E000BF02E000BF00E000BF00BF80BD74
:10119C00800000208C000020000C01403400002056
:1011AC00B78201003C000020D34D6210E00000200B
:1011BC00E800002038000020E400002080B500AFDB
:1011CC0001221121044800F08CFD00222E2102483E
:1011DC0000F087FD00BF80BD0008014080B500AF66
:1011EC0001221421044800F07CFD00222B2102482E
:1011FC0000F077FD00BF80BD0008014080B500AF56
:10120C0001220A21044800F06CFD0022352102481D
:10121C0000F067FD00BF80BD0008014080B500AF45
:10122C0001222221044800F05CFD00221D2102480D
:10123C0000F057FD00BF80BD0008014080B500AF35
:10124C001221054800F065FD00222D21024800F016
:10125C0048FD00BF80BD00BF0008014080B500AF55
:10126C002421054800F055FD00221B21024800F006
:10127C0038FD00BF80BD00BF0008014080B500AF45
:10128C000921054800F045FD00223621024800F0F6
:10129C0028FD00BF80BD00BF0008014080B500AF35
:1012AC0000F01EFA00F00EF800F094F800F046F88A
:1012BC00034801F073F9FFF76BFAFFF791FCFAE7BB
:1012CC00EC00002080B590B000AF07F11803282285
:1012DC000021184601F012FD3B1D00221A605A60D5
:1012EC009A60DA601A610223BB610123BB6210238E
:1012FC00FB6200237B6307F11803184600F022FD04
:10130C000346002B01D000F0D3F80F237B600023A1
:10131C00BB600023FB6000233B6100237B613B1D12
:10132C000021184600F08EFF0346002B01D000F080
:10133C00BFF800BF4037BD4680BD000080B586B009
:10134C0000AF07F1080300221A605A609A60DA6055
:10135C003B4600221A605A601D4B4FF080421A60C7
:10136C001B4B41F63F725A60194B00229A60184B86
:10137C000922DA60164B00221A61154B00229A6181
:10138C00134801F0BBF80346002B01D000F090F895
:10139C004FF48053BB6007F1080319460C4801F069
:1013AC0039FA0346002B01D000F082F800233B6091
:1013BC0000237B603B461946054801F011FC0346AF
:1013CC00002B01D000F074F800BF1837BD4680BD6B
:1013DC00EC00002080B586B000AF07F108030022B6
:1013EC001A605A609A60DA60284B9B69274A43F06E
:1013FC0004039361254B9B6903F004037B607B68BA
:10140C00224B9B69214A43F0080393611F4B9B6954
:10141C0003F008033B603B6800224FF6FF711C4849
:10142C0000F05FFC00224FF687711A4800F059FC5F
:10143C004FF6FF73BB600123FB6000233B6102236B
:10144C007B6107F108031946114800F0B9FA4FF611
:10145C008773BB600123FB6000233B6102237B612C
:10146C0007F1080319460B4800F0AAFA7823BB6071
:10147C000023FB6001233B6107F108031946054873
:10148C0000F09EFA00BF1837BD4680BD0010024028
:10149C0000080140000C014080B582B000AF7860BC
:1014AC0000F0B8F8FFF7CCF800BF0837BD4680BD98
:1014BC0080B400AF72B600BFFEE7000080B485B008
:1014CC0000AF154B9B69144A43F001039361124B17
:1014DC009B6903F00103BB60BB680F4BDB690E4AD1
:1014EC0043F08053D3610C4BDB6903F080537B607A
:1014FC007B680A4B5B68FB60FB6823F0E063FB6076
:10150C00FB6843F08063FB60044AFB68536000BFD8
:10151C001437BD4680BC70470010024000000140EB
:10152C0080B584B000AF78607B681B68B3F1804FE6
:10153C0013D10C4BDB690B4A43F00103D361094B0C
:10154C00DB6903F00103FB60FB68002200211C2017
:10155C0000F0FFF91C2000F018FA00BF1037BD4650
:10156C0080BD00BF0010024080B400AFFEE780B425
:10157C0000AFFEE780B400AFFEE780B400AFFEE73B
:10158C0080B400AFFEE780B400AF00BFBD4680BCA6
:10159C00704780B400AF00BFBD4680BC704780B4BC
:1015AC0000AF00BFBD4680BC704780B500AF00F0F7
:1015BC00DDF800BF80BD000080B500AF024801F02F
:1015CC0039F800BF80BD00BFEC00002080B400AF34
:1015DC0000BFBD4680BC704780B483B000AF78605C
:1015EC003960094B1B683A6892FBF3F207497B6838
:1015FC0041F82320064A7B68002142F8231000BFE3
:10160C000C37BD4680BC704744000020B800002059
:10161C009000002080B483B000AF00237B601CE0FE
:10162C00124A7B6852F82330002B08DD0F4A7B6886
:10163C0052F823305A1E0D497B6841F823200B4A7F
:10164C007B6852F82330002B04DC094A7B680121AB
:10165C0042F823107B6801337B607B68092BDFDD4C
:10166C0000BF00BF0C37BD4680BC7047B8000020DF
:10167C009000002080B483B000AF7860044A7B688F
:10168C0052F8233018460C37BD4680BC704700BF5B
:10169C0090000020FFF79AFF0B480C490C4A0023DE
:1016AC0002E0D458C4500433C4188C42F9D3094A0C
:1016BC00094C002301E013600432A242FBD301F079
:1016CC00F9FAFFF7EBFD70470000002050000020F6
:1016DC005C2D00085000002038010020FEE70000BF
:1016EC0080B500AF084B1B68074A43F0100313602A
:1016FC00032000F023F90F2000F008F8FFF7DEFEBE
:10170C000023184680BD00BF0020024080B582B087
:10171C0000AF7860124B1A68124B1B7819464FF4C5
:10172C007A73B3FBF1F3B2FBF3F3184600F03BF919
:10173C000346002B01D001230EE07B680F2B0AD847
:10174C00002279684FF0FF3000F003F9064A7B68FD
:10175C001360002300E0012318460837BD4680BD06
:10176C00400000204C0000204800002080B400AF56
:10177C00054B1B781A46054B1B681344034A136030
:10178C0000BFBD4680BC70474C00002034010020D7
:10179C0080B400AF024B1B681846BD4680BC704736
:1017AC003401002080B485B000AF78607B6803F012
:1017BC000703FB600C4BDB68BB60BA684FF6FF039A
:1017CC001340BB60FB681A02BB68134343F0BF6352
:1017DC0043F40033BB60044ABB68D36000BF1437CA
:1017EC00BD4680BC704700BF00ED00E080B400AF88
:1017FC00044BDB681B0A03F007031846BD4680BC8C
:10180C00704700BF00ED00E080B483B000AF03462A
:10181C00FB7197F90730002B0BDBFB7903F01F02F0
:10182C00064997F907305B09012000FA02F241F8EA
:10183C00232000BF0C37BD4680BC704700E100E0A0
:10184C0080B483B000AF03463960FB7197F9073061
:10185C00002B0ADB3B68DAB20C4997F9073012010E
:10186C00D2B20B4483F800230AE03B68DAB2084991
:10187C00FB7903F00F03043B1201D2B20B441A762E
:10188C0000BF0C37BD4680BC704700BF00E100E0D4
:10189C0000ED00E080B489B000AFF860B9607A6008
:1018AC00FB6803F00703FB61FB69C3F10703042B1F
:1018BC0028BF0423BB61FB690433062B02D9FB69E7
:1018CC00033B00E000237B614FF0FF32BB6902FA5F
:1018DC0003F3DA43BB681A407B699A404FF0FF313F
:1018EC007B6901FA03F3D9437B680B401343184619
:1018FC002437BD4680BC704780B582B000AF78609D
:10190C007B68013BB3F1807F01D301230FE00A4ACE
:10191C007B68013B53600F214FF0FF30FFF790FFC6
:10192C00054B00229A60044B07221A6000231846CC
:10193C000837BD4680BD00BF10E000E080B582B026
:10194C0000AF78607868FFF72DFF00BF0837BD4601
:10195C0080BD80B586B000AF0346B9607A60FB737A
:10196C0000237B61FFF742FF78617A68B968786978
:10197C00FFF790FF024697F90F3011461846FFF714
:10198C005FFF00BF1837BD4680BD80B582B000AF89
:10199C000346FB7197F907301846FFF735FF00BF78
:1019AC000837BD4680BD80B582B000AF78607868DE
:1019BC00FFF7A2FF034618460837BD4680BD00005E
:1019CC0080B48BB000AF7860396000237B62002359
:1019DC003B6248E101227B6A02FA03F3FB613B683C
:1019EC001B68FA691340BB61BA69FB699A4240F003
:1019FC0037813B685B68A34A93425ED0A14A93420D
:101A0C0075D8A14A934258D09F4A93426FD89F4AA7
:101A1C00934252D09D4A934269D89D4A93424CD0EE
:101A2C009B4A934263D89B4A934246D0994A93422D
:101A3C005DD8122B2AD8122B59D801A252F823F0B8
:101A4C00C71A0008A11A0008B31A0008F51A0008F2
:101A5C00FB1A0008FB1A0008FB1A0008FB1A000806
:101A6C00FB1A0008FB1A0008FB1A0008FB1A0008F6
:101A7C00FB1A0008FB1A0008FB1A0008FB1A0008E6
:101A8C00FB1A0008A91A0008BD1A0008824A9342E2
:101A9C0013D02CE03B68DB683B6229E03B68DB68D9
:101AAC0004333B6224E03B68DB6808333B621FE095
:101ABC003B68DB680C333B621AE03B689B68002B8D
:101ACC0002D104233B6213E03B689B68012B05D1D8
:101ADC0008233B627B68FA691A6109E008233B62C0
:101AEC007B68FA695A6103E000233B6200E000BFA7
:101AFC00BB69FF2B01D87B6801E07B6804337B61F9
:101B0C00BB69FF2B02D87B6A9B0002E07B6A083B17
:101B1C009B003B617B691A680F213B6901FA03F357
:101B2C00DB431A40396A3B6901FA03F31A437B69B8
:101B3C001A603B685B6803F08053002B00F09080C8
:101B4C00564B9B69554A43F001039361534B9B6978
:101B5C0003F00103BB60BB68514A7B6A9B080233EC
:101B6C0052F82330FB607B6A03F003039B000F22C7
:101B7C0002FA03F3DB43FA681340FB607B68494AC3
:101B8C0093420DD07B68484A934207D07B68474A02
:101B9C00934201D1022304E0032302E0012300E07D
:101BAC0000237A6A02F0030292009340FA6813430E
:101BBC00FB603B497B6A9B080233FA6841F823209F
:101BCC003B685B6803F48013002B06D0384B9A6893
:101BDC003749BB6913438B6006E0354B9A68BB6988
:101BEC00DB43334913408B603B685B6803F40013A1
:101BFC00002B06D02E4BDA682D49BB691343CB6002
:101C0C0006E02B4BDA68BB69DB4329491340CB60F8
:101C1C003B685B6803F40033002B06D0244B5A68F6
:101C2C002349BB6913434B6006E0214B5A68BB69DF
:101C3C00DB431F4913404B603B685B6803F4803304
:101C4C00002B06D01A4B1A681949BB6913430B6059
:101C5C0006E0174B1A68BB69DB43154913400B6050
:101C6C007B6A01337B623B681A687B6A22FA03F356
:101C7C00002B7FF4AFAE00BF00BF2C37BD4680BC3D
:101C8C00704700BF0000321000003110000022101D
:101C9C000000211000001210000011100010024072
:101CAC000000014000080140000C01400010014000
:101CBC000004014080B485B000AF78600B467B8097
:101CCC007B689A687B881340002B02D00123FB733E
:101CDC0001E00023FB73FB7B18461437BD4680BC28
:101CEC00704780B483B000AF78600B467B8013469E
:101CFC007B707B78002B03D07A887B681A6103E0B9
:101D0C007B881A047B681A6100BF0C37BD4680BC07
:101D1C00704780B485B000AF78600B467B807B68E1
:101D2C00DB68FB607A88FB6813401A04FB68D943B4
:101D3C007B880B401A437B681A6100BF1437BD4681
:101D4C0080BC704780B586B000AF78607B68002B94
:101D5C0001D101236CE27B681B6803F00103002BAB
:101D6C0000F08780924B5B6803F00C03042B0CD0C3
:101D7C008F4B5B6803F00C03082B12D18C4B5B6808
:101D8C0003F48033B3F5803F0BD1894B1B6803F40C
:101D9C000033002B6CD07B685B68002B68D101236F
:101DAC0046E27B685B68B3F5803F06D1804B1B68CD
:101DBC007F4A43F4803313602EE07B685B68002B12
:101DCC000CD17B4B1B687A4A23F480331360784B1D
:101DDC001B68774A23F4802313601DE07B685B68E3
:101DEC00B3F5A02F0CD1724B1B68714A43F48023BE
:101DFC0013606F4B1B686E4A43F4803313600BE027
:101E0C006B4B1B686A4A23F480331360684B1B6866
:101E1C00674A23F4802313607B685B68002B13D024
:101E2C00FFF7B6FC386108E0FFF7B2FC02463B69ED
:101E3C00D31A642B01D90323FAE15D4B1B6803F41D
:101E4C000033002BF0D014E0FFF7A2FC386108E05F
:101E5C00FFF79EFC02463B69D31A642B01D903237E
:101E6C00E6E1534B1B6803F40033002BF0D100E088
:101E7C0000BF7B681B6803F00203002B63D04C4B44
:101E8C005B6803F00C03002B0BD0494B5B6803F031
:101E9C000C03082B1CD1464B5B6803F48033002BDE
:101EAC0016D1434B1B6803F00203002B05D07B6853
:101EBC001B69012B01D00123BAE13D4B1B6823F0B8
:101ECC00F8027B685B69DB00394913430B603AE02D
:101EDC007B681B69002B20D0364B01221A60FFF760
:101EEC0057FC386108E0FFF753FC02463B69D31AF4
:101EFC00022B01D903239BE12D4B1B6803F002033A
:101F0C00002BF0D02A4B1B6823F0F8027B685B692E
:101F1C00DB00274913430B6015E0264B00221A60A7
:101F2C00FFF736FC386108E0FFF732FC02463B69EC
:101F3C00D31A022B01D903237AE11D4B1B6803F042
:101F4C000203002BF0D17B681B6803F00803002B05
:101F5C003AD07B689B69002B19D0174B01221A6071
:101F6C00FFF716FC386108E0FFF712FC02463B69EC
:101F7C00D31A022B01D903235AE10D4B5B6A03F0F0
:101F8C000203002BF0D0012000F09AFA1CE00A4B5F
:101F9C0000221A60FFF7FCFB38610FE0FFF7F8FB3B
:101FAC0002463B69D31A022B08D9032340E100BF38
:101FBC000010024000004242800442429E4B5B6A89
:101FCC0003F00203002BE9D17B681B6803F00403C8
:101FDC00002B00F0A6800023FB75974BDB6903F008
:101FEC008053002B0DD1944BDB69934A43F0805303
:101FFC00D361914BDB6903F08053BB60BB68012359
:10200C00FB758E4B1B6803F48073002B18D18B4B24
:10201C001B688A4A43F480731360FFF7B9FB38617D
:10202C0008E0FFF7B5FB02463B69D31A642B01D9D4
:10203C000323FDE0814B1B6803F48073002BF0D06D
:10204C007B68DB68012B06D17B4B1B6A7A4A43F019
:10205C00010313622DE07B68DB68002B0CD1764BFF
:10206C001B6A754A23F001031362734B1B6A724A95
:10207C0023F0040313621CE07B68DB68052B0CD196
:10208C006D4B1B6A6C4A43F0040313626A4B1B6A68
:10209C00694A43F0010313620BE0674B1B6A664A03
:1020AC0023F001031362644B1B6A634A23F004039D
:1020BC0013627B68DB68002B15D0FFF769FB386176
:1020CC000AE0FFF765FB02463B69D31A41F28832FE
:1020DC00934201D90323ABE0574B1B6A03F0020375
:1020EC00002BEED014E0FFF753FB38610AE0FFF74A
:1020FC004FFB02463B69D31A41F28832934201D915
:10210C00032395E04C4B1B6A03F00203002BEED12A
:10211C00FB7D012B05D1484BDB69474A23F08053EB
:10212C00D3617B68DB69002B00F08180424B5B68DC
:10213C0003F00C03082B61D07B68DB69022B46D1C2
:10214C003F4B00221A60FFF723FB386108E0FFF7D2
:10215C001FFB02463B69D31A022B01D9032367E00C
:10216C00354B1B6803F00073002BF0D17B681B6AA6
:10217C00B3F5803F08D1304B5B6823F400327B68A9
:10218C009B682D4913434B602B4B5B6823F47412F3
:10219C007B68196A7B685B6A0B43274913434B6066
:1021AC00274B01221A60FFF7F3FA386108E0FFF7BA
:1021BC00EFFA02463B69D31A022B01D9032337E00D
:1021CC001D4B1B6803F00073002BF0D02FE01C4B51
:1021DC0000221A60FFF7DCFA386108E0FFF7D8FA42
:1021EC0002463B69D31A022B01D9032320E0124B80
:1021FC001B6803F00073002BF0D118E07B68DB69DF
:10220C00012B01D1012313E00B4B5B68FB60FB68D6
:10221C0003F480327B681B6A9A4206D1FB6803F494
:10222C0070127B685B6A9A4201D0012300E00023A4
:10223C0018461837BD4680BD0010024000700040A3
:10224C006000424280B584B000AF786039607B6832
:10225C00002B01D10123D0E06A4B1B6803F007036C
:10226C003A689A4210D9674B1B6823F007026549FC
:10227C003B6813430B60634B1B6803F007033A681E
:10228C009A4201D00123B8E07B681B6803F002037B
:10229C00002B20D07B681B6803F00403002B05D0B7
:1022AC00594B5B68584A43F4E06353607B681B6886
:1022BC0003F00803002B05D0534B5B68524A43F4E0
:1022CC0060535360504B5B6823F0F0027B689B6853
:1022DC004D4913434B607B681B6803F00103002BD3
:1022EC0040D07B685B68012B07D1474B1B6803F41C
:1022FC000033002B15D101237FE07B685B68022B38
:10230C0007D1414B1B6803F00073002B09D101234B
:10231C0073E03D4B1B6803F00203002B01D101233A
:10232C006BE0394B5B6823F003027B685B683649D2
:10233C0013434B60FFF72CFAF8600AE0FFF728FA1A
:10234C000246FB68D31A41F28832934201D9032327
:10235C0053E02D4B5B6803F00C027B685B689B00C1
:10236C009A42EBD1274B1B6803F007033A689A4259
:10237C0010D2244B1B6823F0070222493B681343FD
:10238C000B60204B1B6803F007033A689A4201D09C
:10239C00012332E07B681B6803F00403002B08D098
:1023AC00194B5B6823F4E0627B68DB6816491343C6
:1023BC004B607B681B6803F00803002B09D0124BA1
:1023CC005B6823F460527B681B69DB000E49134386
:1023DC004B6000F021F802460B4B5B681B0903F0C5
:1023EC000F030A49CB5C22FA03F3094A1360094B29
:1023FC001B681846FFF78AF9002318461037BD46AC
:10240C0080BD00BF0020024000100240302D0008AB
:10241C00400000204800002080B487B000AF0023AB
:10242C00FB600023BB6000237B6100237B600023E7
:10243C003B611E4B5B68FB60FB6803F00C03042BD9
:10244C0002D0082B03D027E0194B3B6127E0FB6837
:10245C009B0C03F00F03174AD35C7B60FB6803F4FF
:10246C008033002B10D0114B5B685B0C03F0010325
:10247C00114AD35CBB607B680D4A02FB03F2BB685C
:10248C00B2FBF3F37B6104E07B680C4A02FB03F3C1
:10249C007B617B693B6102E0054B3B6100BF3B69A3
:1024AC0018461C37BD4680BC704700BF0010024068
:1024BC0000127A00402D0008502D000800093D0044
:1024CC0080B485B000AF78600A4B1B680A4AA2FB47
:1024DC0003235B0A7A6802FB03F3FB6000BFFB6813
:1024EC005A1EFA60002BF9D100BF00BF1437BD464D
:1024FC0080BC704740000020D34D621080B582B084
:10250C0000AF78607B68002B01D1012341E07B6830
:10251C0093F83D30DBB2002B06D17B68002283F8A8
:10252C003C207868FEF7FCFF7B68022283F83D2094
:10253C007B681A687B6804331946104600F056FA1B
:10254C007B68012283F846207B68012283F83E20B9
:10255C007B68012283F83F207B68012283F84020AE
:10256C007B68012283F841207B68012283F842209A
:10257C007B68012283F843207B68012283F8442086
:10258C007B68012283F845207B68012283F83D207B
:10259C00002318460837BD4680BD000080B485B0C6
:1025AC0000AF78607B6893F83D30DBB2012B01D033
:1025BC00012335E07B68022283F83D207B681B6891
:1025CC00DA687B681B6842F00102DA607B681B6882
:1025DC00164A934209D07B681B68B3F1804F04D034
:1025EC007B681B68124A934211D17B681B689B68FD
:1025FC0003F00703FB60FB68062B10D07B681B689D
:10260C001A687B681B6842F001021A6007E07B685D
:10261C001B681A687B681B6842F001021A60002371
:10262C0018461437BD4680BC704700BF002C0140D3
:10263C000004004080B584B000AF78607B681B68F4
:10264C00DB68FB607B681B681B69BB60BB6803F0C5
:10265C000203002B20D0FB6803F00203002B1BD0DD
:10266C007B681B686FF002021A617B6801221A7783
:10267C007B681B689B6903F00303002B03D078680D
:10268C0000F098F905E0786800F08BF9786800F0B4
:10269C009AF97B6800221A77BB6803F00403002BBD
:1026AC0020D0FB6803F00403002B1BD07B681B6855
:1026BC006FF004021A617B6802221A777B681B6830
:1026CC009B6903F44073002B03D0786800F072F917
:1026DC0005E0786800F065F9786800F074F97B68BB
:1026EC0000221A77BB6803F00803002B20D0FB688C
:1026FC0003F00803002B1BD07B681B686FF00802EB
:10270C001A617B6804221A777B681B68DB6903F00B
:10271C000303002B03D0786800F04CF905E07868CF
:10272C0000F03FF9786800F04EF97B6800221A77C8
:10273C00BB6803F01003002B20D0FB6803F01003E0
:10274C00002B1BD07B681B686FF010021A617B6832
:10275C0008221A777B681B68DB6903F44073002B33
:10276C0003D0786800F026F905E0786800F019F9D4
:10277C00786800F028F97B6800221A77BB6803F0B0
:10278C000103002B0CD0FB6803F00103002B07D0D6
:10279C007B681B686FF001021A617868FEF77CFE9B
:1027AC00BB6803F08003002B0CD0FB6803F08003A4
:1027BC00002B07D07B681B686FF080021A61786869
:1027CC0000F06FFABB6803F04003002B0CD0FB68E1
:1027DC0003F04003002B07D07B681B686FF04002AE
:1027EC001A61786800F0F8F8BB6803F02003002B3E
:1027FC000CD0FB6803F02003002B07D07B681B6810
:10280C006FF020021A61786800F042FA00BF1037AE
:10281C00BD4680BD80B584B000AF786039600023C0
:10282C00FB737B6893F83C30012B01D10223B4E09D
:10283C007B68012283F83C207B68022283F83D20D0
:10284C007B681B689B68BB60BB6823F07703BB602D
:10285C00BB6823F47F43BB607B681B68BA689A60D3
:10286C003B681B68B3F5005F3ED0B3F5005F00F228
:10287C008780B3F5805F00F08680B3F5805F7FD8EA
:10288C00702B1AD0702B7BD8602B50D0602B77D844
:10289C00502B3CD0502B73D8402B58D0402B6FD89A
:1028AC00302B64D0302B6BD8202B60D0202B67D8EA
:1028BC00002B5CD0102B5AD062E07B6818683B6808
:1028CC0099683B685A683B68DB6800F06AF97B687A
:1028DC001B689B68BB60BB6843F07703BB607B687D
:1028EC001B68BA689A604FE07B6818683B68996807
:1028FC003B685A683B68DB6800F053F97B681B68DF
:10290C009A687B681B6842F480429A603CE07B6862
:10291C0018683B6859683B68DB681A4600F0CAF8CF
:10292C007B681B685021184600F021F92CE07B686D
:10293C0018683B6859683B68DB681A4600F0E8F891
:10294C007B681B686021184600F011F91CE07B685D
:10295C0018683B6859683B68DB681A4600F0AAF8AF
:10296C007B681B684021184600F001F90CE07B687D
:10297C001A683B681B681946104600F0F8F803E02B
:10298C000123FB7300E000BF7B68012283F83D202C
:10299C007B68002283F83C20FB7B18461037BD4631
:1029AC0080BD80B483B000AF786000BF0C37BD46EB
:1029BC0080BC704780B483B000AF786000BF0C3728
:1029CC00BD4680BC704780B483B000AF786000BF58
:1029DC000C37BD4680BC704780B483B000AF7860C4
:1029EC0000BF0C37BD4680BC7047000080B485B07A
:1029FC0000AF786039607B681B68FB607B682B4A92
:102A0C00934207D07B68B3F1804F03D07B68284A90
:102A1C00934208D1FB6823F07003FB603B685B6852
:102A2C00FA681343FB607B68204A934207D07B68AB
:102A3C00B3F1804F03D07B681D4A934208D1FB68E9
:102A4C0023F44073FB603B68DB68FA681343FB605C
:102A5C00FB6823F080023B685B691343FB607B6877
:102A6C00FA681A603B689A687B68DA623B681A6895
:102A7C007B689A627B680D4A934203D13B681A6962
:102A8C007B681A637B6801225A617B681B6903F0BF
:102A9C000103002B05D07B681B6923F001027B68C6
:102AAC001A6100BF1437BD4680BC7047002C014032
:102ABC000004004080B487B000AFF860B9607A6061
:102ACC00FB681B6A7B61FB681B6A23F00102FB68D5
:102ADC001A62FB689B693B613B6923F0F0033B6125
:102AEC007B681B013A6913433B617B6923F00A0342
:102AFC007B617A69BB6813437B61FB683A699A61B5
:102B0C00FB687A691A6200BF1C37BD4680BC7047EF
:102B1C0080B487B000AFF860B9607A60FB681B6A5C
:102B2C007B61FB681B6A23F01002FB681A62FB686E
:102B3C009B693B613B6923F470433B617B681B03DE
:102B4C003A6913433B617B6923F0A0037B61BB684B
:102B5C001B017A6913437B61FB683A699A61FB68D4
:102B6C007A691A6200BF1C37BD4680BC704780B4BE
:102B7C0085B000AF786039607B689B68FB60FB6850
:102B8C0023F07003FB603A68FB68134343F00703C0
:102B9C00FB607B68FA689A6000BF1437BD4680BC46
:102BAC00704780B487B000AFF860B9607A603B6062
:102BBC00FB689B687B617B6923F47F437B613B688B
:102BCC001A027B681A43BB6813437A6913437B610F
:102BDC00FB687A699A6000BF1C37BD4680BC7047A1
:102BEC0080B485B000AF786039607B6893F83C3076
:102BFC00012B01D1022341E07B68012283F83C20A8
:102C0C007B68022283F83D207B681B685B68FB6055
:102C1C007B681B689B68BB60FB6823F07003FB60E0
:102C2C003B681B68FA681343FB607B681B68FA6897
:102C3C005A607B681B68144A934209D07B681B68F6
:102C4C00B3F1804F04D07B681B68104A93420CD1BF
:102C5C00BB6823F08003BB603B685B68BA681343B6
:102C6C00BB607B681B68BA689A607B68012283F83A
:102C7C003D207B68002283F83C2000231846143743
:102C8C00BD4680BC704700BF002C014000040040D2
:102C9C0080B483B000AF786000BF0C37BD4680BCF9
:102CAC00704780B483B000AF786000BF0C37BD466E
:102CBC0080BC704770B500260C4D0D4C641BA410E5
:102CCC00A64209D100F022F800260A4D0A4C641BDA
:102CDC00A410A64205D170BD55F8043B98470136A7
:102CEC00EEE755F8043B98470136F2E7542D0008FF
:102CFC00542D0008542D0008582D0008034602449A
:102D0C00934200D1704703F8011BF9E7F8B500BFF7
:102D1C00F8BC08BC9E467047F8B500BFF8BC08BCB0
:042D2C009E46704708
:102D3000000000000000000001020304060708096B
:102D400002030405060708090A0B0C0D0E0F1010EC
:042D5000010200007C
:042D54003101000841
:042D58000D01000861
:102D5C000100000000000000000000000100000065
:102D6C000000000000000000010000000000000056
:102D7C000000000001000000000000000000000046
:102D8C00F4010000A00F0000E8030000B80B0000E5
:102D9C0000127A000A000000100000000100000080
:04000005080016A138
:00000001FF
