:020000040800F2
:1000000000280020A5170008351700083B17000836
:1000100041170008471700084D17000800000000AE
:10002000000000000000000000000000531700085E
:100030005F170008000000006B1700087717000822
:10004000ED170008ED170008ED170008ED17000880
:10005000ED170008ED170008ED170008ED17000870
:10006000ED170008ED170008ED170008ED17000860
:10007000ED170008ED170008ED170008ED17000850
:10008000ED170008ED170008ED170008ED17000840
:10009000ED170008ED170008ED170008ED17000830
:1000A000ED170008ED170008ED170008ED17000820
:1000B00085170008ED17000800000000ED17000884
:1000C000ED1700080000000000000000ED17000818
:1000D00000000000ED170008ED1700080000000008
:1000E000ED170008ED170008ED17000800000000EC
:1000F0000000000000000000000000000000000000
:0C01000000000000000000005FF808F1A3
:10010C0010B5054C237833B9044B13B10448AFF345
:10011C0000800123237010BD54000020000000005B
:10012C001C2E000808B5034B1BB103490348AFF361
:10013C00008008BD00000000580000201C2E0008A4
:10014C0080B582B000AF78607B68092B00F2128119
:10015C0001A252F823F000BF8D010008BF01000876
:10016C00F10100082302000855020008870200086C
:10017C00B9020008EB0200081D0300084F03000839
:10018C0000224FF480617D4801F02DFE00224FF4D7
:10019C0000617A4801F027FE00224FF48051774825
:1001AC0001F021FE00224FF40051744801F01BFEB7
:1001BC00E0E000224FF48061704801F014FE002250
:1001CC004FF400616D4801F00EFE00224FF4805197
:1001DC006A4801F008FE01224FF40051674801F013
:1001EC0002FEC7E000224FF48061644801F0FBFD81
:1001FC0000224FF40061614801F0F5FD01224FF43B
:10020C0080515E4801F0EFFD00224FF400515B4835
:10021C0001F0E9FDAEE000224FF48061574801F097
:10022C00E2FD00224FF40061544801F0DCFD012294
:10023C004FF48051514801F0D6FD01224FF400518A
:10024C004E4801F0D0FD95E000224FF480614B4800
:10025C0001F0C9FD01224FF40061484801F0C3FDD3
:10026C0000224FF48051454801F0BDFD00224FF4AF
:10027C000051424801F0B7FD7CE000224FF4806150
:10028C003E4801F0B0FD01224FF400613B4801F003
:10029C00AAFD00224FF48051384801F0A4FD012240
:1002AC004FF40051354801F09EFD63E000224FF4FD
:1002BC008061324801F097FD01224FF400612F4814
:1002CC0001F091FD01224FF480512C4801F08BFD7F
:1002DC0000224FF40051294801F085FD4AE000222C
:1002EC004FF48061254801F07EFD01224FF400613E
:1002FC00224801F078FD01224FF480511F4801F093
:10030C0072FD01224FF400511C4801F06CFD31E0EC
:10031C0001224FF48061194801F065FD00224FF471
:10032C000061164801F05FFD00224FF48051134824
:10033C0001F059FD00224FF40051104801F053FD1B
:10034C0018E001224FF480610C4801F04CFD0022B2
:10035C004FF40061094801F046FD00224FF4805132
:10036C00064801F040FD01224FF40051034801F012
:10037C003AFD00BF00BF0837BD4680BD00080140F4
:10038C0080B582B000AF78607B68092B00F2FE80EC
:10039C0001A252F823F000BFCD030008FB030008B4
:1003AC00290400085704000885040008B304000859
:1003BC00E10400080F0500083D0500086B05000866
:1003CC0000224FF48041734801F00DFD00224FF4E0
:1003DC000041704801F007FD002201216E4801F038
:1003EC0002FD002202216C4801F0FDFCCEE000224F
:1003FC004FF48041674801F0F6FC00224FF40041B5
:10040C00644801F0F0FC00220121634801F0EBFC90
:10041C0001220221604801F0E6FCB7E000224FF413
:10042C0080415C4801F0DFFC00224FF40041594848
:10043C0001F0D9FC01220121574801F0D4FC002223
:10044C000221554801F0CFFCA0E000224FF480417E
:10045C00504801F0C8FC00224FF400414D4801F017
:10046C00C2FC012201214C4801F0BDFC01220221F9
:10047C00494801F0B8FC89E000224FF4804145481E
:10048C0001F0B1FC01224FF40041424801F0ABFCF9
:10049C0000220121404801F0A6FC002202213E4826
:1004AC0001F0A1FC72E000224FF48041394801F0C8
:1004BC009AFC01224FF40041364801F094FC0022D2
:1004CC000121354801F08FFC01220221324801F054
:1004DC008AFC5BE000224FF480412E4801F083FC43
:1004EC0001224FF400412B4801F07DFC0122012137
:1004FC00294801F078FC00220221274801F073FC06
:10050C0044E000224FF48041224801F06CFC0122AF
:10051C004FF400411F4801F066FC012201211E48E6
:10052C0001F061FC012202211B4801F05CFC2DE072
:10053C0001224FF48041174801F055FC00224FF482
:10054C000041144801F04FFC00220121124801F037
:10055C004AFC00220221104801F045FC16E0012261
:10056C004FF480410B4801F03EFC00224FF4004157
:10057C00084801F038FC00220121074801F033FC47
:10058C0001220221044801F02EFC00BF00BF0837F5
:10059C00BD4680BD00080140000C014080B582B012
:1005AC0000AF78607B68092B00F2088101A252F839
:1005BC0023F000BFE90500081906000849060008E9
:1005CC0079060008A9060008D906000809070008E2
:1005DC003907000869070008990700080022042160
:1005EC00784801F000FC00224FF40071754801F0CE
:1005FC00FAFB00224FF48061724801F0F4FB0022F8
:10060C004FF400616F4801F0EEFBD7E000220421AB
:10061C006C4801F0E8FB00224FF40071694801F0CE
:10062C00E2FB00224FF48061664801F0DCFB012202
:10063C004FF40061634801F0D6FBBFE000220421B7
:10064C00604801F0D0FB00224FF400715D4801F0CE
:10065C00CAFB01224FF480615A4801F0C4FB00220E
:10066C004FF40061574801F0BEFBA7E000220421C3
:10067C00544801F0B8FB00224FF40071514801F0CE
:10068C00B2FB01224FF480614E4801F0ACFB012219
:10069C004FF400614B4801F0A6FB8FE000220421CF
:1006AC00484801F0A0FB01224FF40071454801F0CD
:1006BC009AFB00224FF48061424801F094FB002227
:1006CC004FF400613F4801F08EFB77E000220421DB
:1006DC003C4801F088FB01224FF40071394801F0CD
:1006EC0082FB00224FF48061364801F07CFB012232
:1006FC004FF40061334801F076FB5FE000220421E7
:10070C00304801F070FB01224FF400712D4801F0CC
:10071C006AFB01224FF480612A4801F064FB00223D
:10072C004FF40061274801F05EFB47E000220421F2
:10073C00244801F058FB01224FF40071214801F0CC
:10074C0052FB01224FF480611E4801F04CFB012248
:10075C004FF400611B4801F046FB2FE001220421FD
:10076C00184801F040FB00224FF40071154801F0CD
:10077C003AFB00224FF48061124801F034FB002256
:10078C004FF400610F4801F02EFB17E00122042109
:10079C000C4801F028FB00224FF40071094801F0CD
:1007AC0022FB00224FF48061064801F01CFB012261
:1007BC004FF40061034801F016FB00BF00BF08377F
:1007CC00BD4680BD000C014080B582B000AF7860A2
:1007DC007B68092B00F2128101A252F823F000BFB2
:1007EC00150800084708000879080008AB0800083D
:1007FC00DD0800080F09000841090008730900080A
:10080C00A5090008D709000800224FF480517D4843
:10081C0001F0E9FA00224FF400517A4801F0E3FAB2
:10082C0000224FF48041774801F0DDFA00224FF4AA
:10083C000041744801F0D7FAE0E000224FF48051F7
:10084C00704801F0D0FA00224FF400516D4801F0CD
:10085C00CAFA00224FF480416A4801F0C4FA01221E
:10086C004FF40041674801F0BEFAC7E000224FF494
:10087C008051644801F0B7FA00224FF400516148EE
:10088C0001F0B1FA01224FF480415E4801F0ABFA5D
:10089C0000224FF400415B4801F0A5FAAEE00022C3
:1008AC004FF48051574801F09EFA00224FF400514A
:1008BC00544801F098FA01224FF48041514801F05C
:1008CC0092FA01224FF400414E4801F08CFA95E067
:1008DC0000224FF480514B4801F085FA01224FF46D
:1008EC000051484801F07FFA00224FF480414548FE
:1008FC0001F079FA00224FF40041424801F073FAFA
:10090C007CE000224FF480513E4801F06CFA012249
:10091C004FF400513B4801F066FA00224FF480413D
:10092C00384801F060FA01224FF40041354801F0DB
:10093C005AFA63E000224FF48051324801F053FA26
:10094C0001224FF400512F4801F04DFA01224FF4CF
:10095C0080412C4801F047FA00224FF4004129480D
:10096C0001F041FA4AE000224FF48051254801F091
:10097C003AFA01224FF40051224801F034FA0122D4
:10098C004FF480411F4801F02EFA01224FF4004130
:10099C001C4801F028FA31E001224FF4805119482B
:1009AC0001F021FA00224FF40051164801F01BFA15
:1009BC0000224FF48041134801F015FA00224FF445
:1009CC000041104801F00FFA18E001224FF4805159
:1009DC000C4801F008FA00224FF40051094801F0CC
:1009EC0002FA00224FF48041064801F0FCF9012282
:1009FC004FF40041034801F0F6F900BF00BF08377F
:100A0C00BD4680BD000C014080B582B000AF78605F
:100A1C0039607B68224A82FB03129210DB17D31ACF
:100A2C007B603B681E4A82FB03129210DB17D31AC1
:100A3C003B607B681A4A82FB03129210DB17D31AB5
:100A4C001846FFF77DFB7A68154B83FB0213991050
:100A5C00D317C91A0B469B000B445B00D11A0846EE
:100A6C00FFF78EFC3B680E4A82FB03129210DB17D9
:100A7C00D31A1846FFF792FD3A68094B83FB021311
:100A8C009910D317C91A0B469B000B445B00D11A63
:100A9C000846FFF799FE00BF0837BD4680BD00BF72
:100AAC006766666680B582B000AF00237B6089E024
:100ABC00494A7B6852F8232048497B6841F8232037
:100ACC00474A7B6852F8232043497B6841F823202E
:100ADC007B68002B0AD10821424801F06DF90346CE
:100AEC0019463F4A7B6842F823101AE07B68012BB9
:100AFC000AD110213B4801F05FF903461946384AE8
:100B0C007B6842F823100CE07B68022B09D1202172
:100B1C00344801F051F903461946314A7B6842F8D2
:100B2C0023102D4A7B6852F823202D497B6851F8FD
:100B3C0023309A4243D1284A7B6852F82320274914
:100B4C007B6851F823309A4239D1244A7B6852F899
:100B5C00232025497B6851F823309A4217D01F4A2D
:100B6C007B6852F8232020497B6841F823201E4AD9
:100B7C007B6852F82330002B21D11C4B4FF4FA72B6
:100B8C001A601B4A7B68012142F8231017E0174BAF
:100B9C001B68013B154A1360144B1B68002B0ED1CC
:100BAC00124B4FF4FA721A600F4A7B6852F82330DA
:100BBC00002B04D10E4A7B68012142F823107B687C
:100BCC0001337B607B68022B7FF772AF00BF00BFE5
:100BDC000837BD4680BD00BF0C0000201800002067
:100BEC0000000020000C01402400002030000020F8
:100BFC007000002080B500AFFFF754FF1D4B1B6841
:100C0C00012B31D180211C4801F005F900F030FA9C
:100C1C001A4B1B68143B032B27D801A252F823F064
:100C2C003D0C00084B0C0008590C0008670C000820
:100C3C00124B15221A60012000F076FA15E00F4BCA
:100C4C0016221A60022000F06FFA0EE00B4B1722EE
:100C5C001A60032000F068FA07E0084B15221A60AE
:100C6C00012000F061FA00E000BF024B00221A6084
:100C7C0000BF80BD70000020000C0140340000203B
:100C8C0080B500AF554B1B68142B40F0A580544B1E
:100C9C001B68042B00F29B8001A252F823F000BFCA
:100CAC00C10C0008C90C00080D0D00084B0D000804
:100CBC008F0D00084A4B01221A6088E000F0B8F949
:100CCC00484B1A68484B1B68D31A03F10A00454B72
:100CDC001A68464B1B681A44434B1B68D31A0A33D9
:100CEC001946FFF791FE404B1A683E4B1B689A421F
:100CFC0066DB3B4B02221A603B4B00221A605FE022
:100D0C0000F0A6F9394B1A68374B1B68D31A03F15C
:100D1C000A00364B1A68344B1B68D31A0A3319462F
:100D2C00FFF772FE304B1A68304B1B689A4249DB56
:100D3C002B4B03221A602C4B00221A6042E000F06D
:100D4C0057F9284B1A68294B1B681A44264B1B6809
:100D5C00D31A03F10A00234B1A68234B1B68D31ACE
:100D6C000A331946FFF750FE1F4B1A681D4B1B68C0
:100D7C009A4229DB1A4B04221A601B4B00221A6080
:100D8C0022E000F045F9194B1A68174B1B68D31A6F
:100D9C0003F10A00154B1A68134B1B68D31A0A335C
:100DAC001946FFF731FE104B1A68104B1B689A421C
:100DBC000CDB0B4B01221A600B4B00221A6005E076
:100DCC0000BF04E000BF02E000BF00E000BF064B24
:100DDC001B680133044A136000BF80BD340000203F
:100DEC007C00002040000020800000203C000020FF
:100DFC0080B483B000AF78607B681B68002B04D094
:100E0C007B6800221A60012300E0002318460C378F
:100E1C00BD4680BC7047000080B500AF6648FFF748
:100E2C00E7FF0346002B0BD0644B1B68644A13602E
:100E3C00644B1B68644A1360644B1B68644A136000
:100E4C00644B1B68172B46D0172B67DC152B02D075
:100E5C00162B22D062E0604B1B68312B0CDD00F0AE
:100E6C001BF9574B1B68564A126811461846FFF778
:100E7C00CBFD594B00221A60584B5B68012B48D1B3
:100E8C00564B00225A608021554800F0C4FF4C4B51
:100E9C001B680A334A4A13603BE04F4B1B68312BEB
:100EAC000CDD00F031F9484B1B68474A12681146BB
:100EBC001846FFF7A9FD484B00221A60474B5B68A8
:100ECC00012B28D1454B00225A603F4B1B680A333B
:100EDC003D4A13601FE0404B1B68312B0CDD00F0CA
:100EEC0003F93B4B1B683A4A126811461846FFF748
:100EFC008BFD394B00221A60384B5B68012B0CD1EF
:100F0C00364B00225A60324B1B680A33304A13604E
:100F1C0003E000BF02E000BF00E000BF2A4B1A68EC
:100F2C002B4B1B681A44264B1B689A4225D100F0A8
:100F3C00CFF82A4B9B68012B31D1284B00229A60A9
:100F4C008021274800F067FF1D4B1B681B4A13606C
:100F5C001D4B1B681B4A13601D4B1B681B4A1360FF
:100F6C001C4B14221A601F4B00221A601E4B0022CD
:100F7C001A60002000F0D8F811E0134B1A68144BDB
:100F8C001B681A440E4B1B689A4208D0174B1B68FF
:100F9C00312B04DD00F090F8144B00221A600E4B3C
:100FAC001B6801330C4A1360104B1B6801330F4A4A
:100FBC00136000BF80BD00BF44000020380000203B
:100FCC009400002040000020980000203C000020ED
:100FDC0090000020340000208400002070000020CD
:100FEC00000C0140800000207C00002088000020C4
:100FFC0080B500AF01221121044800F0F4FE00225C
:10100C002E21024800F0EFFE00BF80BD0008014019
:10101C0080B500AF01221421044800F0E4FE002248
:10102C002B21024800F0DFFE00BF80BD000801400C
:10103C0080B500AF01220A21044800F0D4FE002242
:10104C003521024800F0CFFE00BF80BD00080140F2
:10105C0080B500AF01222221044800F0C4FE00221A
:10106C001D21024800F0BFFE00BF80BD00080140FA
:10107C0080B500AF00223F21054800F0B4FE0022ED
:10108C004FF48071034800F0AEFE00BF80BD00BF7E
:10109C0000080140000C014080B500AF122105484A
:1010AC0000F0B9FE00222D21024800F09CFE00BF8A
:1010BC0080BD00BF0008014080B500AF4FF48071C7
:1010CC00024800F0A8FE00BF80BD00BF000C01402C
:1010DC0080B500AF00224FF48071024800F083FE0F
:1010EC0000BF80BD000C014080B500AF2421054835
:1010FC0000F091FE00221B21024800F074FE00BF9C
:10110C0080BD00BF0008014080B500AF0921054833
:10111C0000F081FE00223621024800F064FE00BF80
:10112C0080BD00BF0008014080B582B000AF786080
:10113C007B68032B66D801A252F823F059110008E2
:10114C0087110008B5110008E311000800224021A6
:10115C002E4800F048FE002280212C4800F043FE6F
:10116C0000224FF48071294800F03DFE00224FF41C
:10117C000071264800F037FE44E00022402123484D
:10118C0000F031FE00228021204800F02CFE0022CD
:10119C004FF480711D4800F026FE01224FF40071BF
:1011AC001A4800F020FE2DE000224021174800F0E4
:1011BC001AFE00228021154800F015FE01224FF482
:1011CC008071124800F00FFE00224FF400710F489E
:1011DC0000F009FE16E0002240210C4800F003FE4E
:1011EC0000228021094800F0FEFD01224FF480719D
:1011FC00064800F0F8FD01224FF40071034800F09E
:10120C00F2FD00BF00BF0837BD4680BD000801409D
:10121C0080B500AF4021024800F0FDFD00BF80BD4D
:10122C00000C014080B500AF00F0DCFA00F02AF8A9
:10123C0000F0B0F800F062F80D4801F031FA4FF40C
:10124C007A720A210B4800F077F964220A210A48C5
:10125C0000F072F964220A21084800F06DF90A22A4
:10126C000A21074800F068F900F0C6F9FCE700BF56
:10127C009C0000201D1200088D0C0008250E000893
:10128C00010C000880B590B000AF07F118032822BC
:10129C000021184601F0B4FD3B1D00221A605A6073
:1012AC009A60DA601A610223BB610123BB621023CE
:1012BC00FB6200237B6307F11803184600F0C4FDA2
:1012CC000346002B01D000F0D1F80F237B600023E4
:1012DC00BB600023FB6000233B6100237B613B1D53
:1012EC000021184601F030F80346002B01D000F025
:1012FC00BDF800BF4037BD4680BD000080B586B04C
:10130C0000AF07F1080300221A605A609A60DA6095
:10131C003B4600221A605A601D4B4FF080421A6007
:10132C001B4B41F63F725A60194B00229A60184BC6
:10133C000922DA60164B00221A61154B00229A61C1
:10134C00134801F05DF90346002B01D000F08EF834
:10135C004FF48053BB6007F1080319460C4801F0A9
:10136C00DBFA0346002B01D000F080F800233B6031
:10137C0000237B603B461946054801F0B3FC03464D
:10138C00002B01D000F072F800BF1837BD4680BDAD
:10139C009C00002080B586B000AF07F10803002246
:1013AC001A605A609A60DA60284B9B69274A43F0AE
:1013BC0004039361254B9B6903F004037B607B68FA
:1013CC00224B9B69214A43F0080393611F4B9B6995
:1013DC0003F008033B603B6800224FF6FF711C488A
:1013EC0000F001FD00224FF6C7711A4800F0FBFC1B
:1013FC004FF6FF73BB600123FB6000233B610223AC
:10140C007B6107F108031946114800F05BFB4FF6AE
:10141C00C773BB600123FB6000233B6102237B612C
:10142C0007F1080319460B4800F04CFB3823BB604E
:10143C000023FB6001233B6107F1080319460548B3
:10144C0000F040FB00BF1837BD4680BD00100240C5
:10145C0000080140000C014080B582B000AF7860FC
:10146C0000F00AF800BF0837BD4680BD80B400AF5D
:10147C0072B600BFFEE7000080B483B000AF00235B
:10148C007B6048E02A497A6813469B0013449B0012
:10149C000B4404331B68002B13D025497A68134680
:1014AC009B0013449B000B4404331B68591E2048BB
:1014BC007A6813469B0013449B0003440433196061
:1014CC0026E01B497A6813469B0013449B000B448F
:1014DC000833196816487A6813469B0013449B001E
:1014EC0003440433196012497A6813469B00134471
:1014FC009B000B440C331B780133D8B20C497A682F
:10150C0013469B0013449B000B440C3302461A7089
:10151C007B6801337B60074B1B781A467B689342D0
:10152C00B0DB00BF00BF0C37BD4680BC704700BFAE
:10153C00E40000208C00002080B485B000AFF8607F
:10154C00B9607A60294B1B78092B0AD8274B1B787A
:10155C001946274A0B469B000B449B001344FA6820
:10156C001A60224B1B781846BB68224AA2FB032345
:10157C00DA081F4903469B0003449B000B440433C9
:10158C001A601A4B1B7818467B681A4AA2FB032375
:10159C00DA08174903469B0003449B000B440833AD
:1015AC001A60124B1B781946114A0B469B000B44D0
:1015BC009B0013440C3300221A700C4B1A780B4B03
:1015CC001B78194610460A4A0B469B000B449B009D
:1015DC00134410331860054B1B780133DAB2034BFC
:1015EC001A7000BF1437BD4680BC70478C000020B9
:1015FC00E4000020CDCCCCCC80B582B000AF002371
:10160C007B602BE01B497A6813469B0013449B00BC
:10161C000B440C331B78002B1DD016497A681346EB
:10162C009B0013449B000B441B68984711497A6834
:10163C0013469B0013449B000B440C331B78013B5B
:10164C00D8B20C497A6813469B0013449B000B4498
:10165C000C3302461A707B6801337B60064B1B7897
:10166C001A467B689342CDDB00BF00BF0837BD46EE
:10167C0080BD00BFE40000208C00002080B485B049
:10168C0000AF154B9B69144A43F001039361124B55
:10169C009B6903F00103BB60BB680F4BDB690E4A0F
:1016AC0043F08053D3610C4BDB6903F080537B60B8
:1016BC007B680A4B5B68FB60FB6823F0E063FB60B4
:1016CC00FB6843F08063FB60044AFB68536000BF17
:1016DC001437BD4680BC704700100240000001402A
:1016EC0080B584B000AF78607B681B68B3F1804F25
:1016FC0013D10C4BDB690B4A43F00103D361094B4B
:10170C00DB6903F00103FB60FB68002200211C2055
:10171C0000F0A1F91C2000F0BAF900BF1037BD464B
:10172C0080BD00BF0010024080B400AFFEE780B463
:10173C0000AFFEE780B400AFFEE780B400AFFEE779
:10174C0080B400AFFEE780B400AF00BFBD4680BCE4
:10175C00704780B400AF00BFBD4680BC704780B4FA
:10176C0000AF00BFBD4680BC704780B500AF00F035
:10177C007FF800BF80BD000080B500AF024800F0CC
:10178C00DBFF00BF80BD00BF9C00002080B400AF19
:10179C0000BFBD4680BC7047FFF7F8FF0B480C49F3
:1017AC000C4A002302E0D458C4500433C4188C42B1
:1017BC00F9D3094A094C002301E013600432A24218
:1017CC00FBD301F0F9FAFFF72DFD70470000002064
:1017DC0054000020602E000854000020B0010020AE
:1017EC00FEE7000080B500AF084B1B68074A43F0CA
:1017FC0010031360032000F023F90F2000F008F809
:10180C00FFF73CFF0023184680BD00BF00200240BC
:10181C0080B582B000AF7860124B1A68124B1B78FF
:10182C0019464FF47A73B3FBF1F3B2FBF3F318469A
:10183C0000F03BF90346002B01D001230EE07B683E
:10184C000F2B0AD8002279684FF0FF3000F003F913
:10185C00064A7B681360002300E001231846083712
:10186C00BD4680BD48000020500000204C000020E8
:10187C0080B400AF054B1B781A46054B1B6813440C
:10188C00034A136000BFBD4680BC70475000002067
:10189C00AC01002080B400AF024B1B681846BD465B
:1018AC0080BC7047AC01002080B485B000AF78607C
:1018BC007B6803F00703FB600C4BDB68BB60BA680A
:1018CC004FF6FF031340BB60FB681A02BB6813435F
:1018DC0043F0BF6343F40033BB60044ABB68D3607E
:1018EC0000BF1437BD4680BC704700BF00ED00E060
:1018FC0080B400AF044BDB681B0A03F007031846E7
:10190C00BD4680BC704700BF00ED00E080B483B0E2
:10191C0000AF0346FB7197F90730002B0BDBFB790B
:10192C0003F01F02064997F907305B09012000FA02
:10193C0002F241F8232000BF0C37BD4680BC704733
:10194C0000E100E080B483B000AF03463960FB7166
:10195C0097F90730002B0ADB3B68DAB20C4997F990
:10196C0007301201D2B20B4483F800230AE03B6823
:10197C00DAB20849FB7903F00F03043B1201D2B22F
:10198C000B441A7600BF0C37BD4680BC704700BFB5
:10199C0000E100E000ED00E080B489B000AFF86039
:1019AC00B9607A60FB6803F00703FB61FB69C3F164
:1019BC000703042B28BF0423BB61FB690433062BEC
:1019CC0002D9FB69033B00E000237B614FF0FF323F
:1019DC00BB6902FA03F3DA43BB681A407B699A408D
:1019EC004FF0FF317B6901FA03F3D9437B680B405D
:1019FC00134318462437BD4680BC704780B582B06F
:101A0C0000AF78607B68013BB3F1807F01D3012389
:101A1C000FE00A4A7B68013B53600F214FF0FF3007
:101A2C00FFF790FF054B00229A60044B07221A60C7
:101A3C00002318460837BD4680BD00BF10E000E00B
:101A4C0080B582B000AF78607868FFF72DFF00BFDB
:101A5C000837BD4680BD80B586B000AF0346B9607F
:101A6C007A60FB7300237B61FFF742FF78617A6831
:101A7C00B9687869FFF790FF024697F90F30114665
:101A8C001846FFF75FFF00BF1837BD4680BD80B515
:101A9C0082B000AF0346FB7197F907301846FFF789
:101AAC0035FF00BF0837BD4680BD80B582B000AFA2
:101ABC0078607868FFF7A2FF034618460837BD46E2
:101ACC0080BD000080B48BB000AF7860396000231B
:101ADC007B6200233B6248E101227B6A02FA03F33A
:101AEC00FB613B681B68FA691340BB61BA69FB690F
:101AFC009A4240F037813B685B68A34A93425ED0C0
:101B0C00A14A934275D8A14A934258D09F4A934216
:101B1C006FD89F4A934252D09D4A934269D89D4AAE
:101B2C0093424CD09B4A934263D89B4A934246D0F3
:101B3C00994A93425DD8122B2AD8122B59D801A25C
:101B4C0052F823F0CB1B0008A51B0008B71B00089C
:101B5C00F91B0008FF1B0008FF1B0008FF1B0008F7
:101B6C00FF1B0008FF1B0008FF1B0008FF1B0008E1
:101B7C00FF1B0008FF1B0008FF1B0008FF1B0008D1
:101B8C00FF1B0008FF1B0008AD1B0008C11B000851
:101B9C00824A934213D02CE03B68DB683B6229E01D
:101BAC003B68DB6804333B6224E03B68DB6808334A
:101BBC003B621FE03B68DB680C333B621AE03B681E
:101BCC009B68002B02D104233B6213E03B689B68AB
:101BDC00012B05D108233B627B68FA691A6109E085
:101BEC0008233B627B68FA695A6103E000233B627D
:101BFC0000E000BFBB69FF2B01D87B6801E07B686C
:101C0C0004337B61BB69FF2B02D87B6A9B0002E02B
:101C1C007B6A083B9B003B617B691A680F213B691F
:101C2C0001FA03F3DB431A40396A3B6901FA03F307
:101C3C001A437B691A603B685B6803F08053002B86
:101C4C0000F09080564B9B69554A43F00103936119
:101C5C00534B9B6903F00103BB60BB68514A7B6A21
:101C6C009B08023352F82330FB607B6A03F00303BA
:101C7C009B000F2202FA03F3DB43FA681340FB606C
:101C8C007B68494A93420DD07B68484A934207D0FF
:101C9C007B68474A934201D1022304E0032302E00C
:101CAC00012300E000237A6A02F0030292009340C1
:101CBC00FA681343FB603B497B6A9B080233FA6862
:101CCC0041F823203B685B6803F48013002B06D09B
:101CDC00384B9A683749BB6913438B6006E0354B28
:101CEC009A68BB69DB43334913408B603B685B6884
:101CFC0003F40013002B06D02E4BDA682D49BB6978
:101D0C001343CB6006E02B4BDA68BB69DB432949F4
:101D1C001340CB603B685B6803F40033002B06D0A8
:101D2C00244B5A682349BB6913434B6006E0214B93
:101D3C005A68BB69DB431F4913404B603B685B68C7
:101D4C0003F48033002B06D01A4B1A681949BB696F
:101D5C0013430B6006E0174B1A68BB69DB4315494C
:101D6C0013400B607B6A01337B623B681A687B6AA9
:101D7C0022FA03F3002B7FF4AFAE00BF00BF2C3769
:101D8C00BD4680BC704700BF00003210000031100F
:101D9C000000221000002110000012100000111091
:101DAC00001002400000014000080140000C0140FE
:101DBC00001001400004014080B485B000AF786091
:101DCC000B467B807B689A687B881340002B02D083
:101DDC000123FB7301E00023FB73FB7B18461437D4
:101DEC00BD4680BC704780B483B000AF78600B46B2
:101DFC007B8013467B707B78002B03D07A887B68C2
:101E0C001A6103E07B881A047B681A6100BF0C37E7
:101E1C00BD4680BC704780B485B000AF78600B467F
:101E2C007B807B68DB68FB607A88FB6813401A0454
:101E3C00FB68D9437B880B401A437B681A6100BF4F
:101E4C001437BD4680BC704780B586B000AF786053
:101E5C007B68002B01D101236CE27B681B6803F0CB
:101E6C000103002B00F08780924B5B6803F00C039E
:101E7C00042B0CD08F4B5B6803F00C03082B12D196
:101E8C008C4B5B6803F48033B3F5803F0BD1894BEB
:101E9C001B6803F40033002B6CD07B685B68002B51
:101EAC0068D1012346E27B685B68B3F5803F06D1BD
:101EBC00804B1B687F4A43F4803313602EE07B68B1
:101ECC005B68002B0CD17B4B1B687A4A23F4803364
:101EDC001360784B1B68774A23F4802313601DE052
:101EEC007B685B68B3F5A02F0CD1724B1B68714AF1
:101EFC0043F4802313606F4B1B686E4A43F48033AA
:101F0C0013600BE06B4B1B686A4A23F4803313603D
:101F1C00684B1B68674A23F4802313607B685B68FB
:101F2C00002B13D0FFF7B6FC386108E0FFF7B2FCCA
:101F3C0002463B69D31A642B01D90323FAE15D4BAA
:101F4C001B6803F40033002BF0D014E0FFF7A2FC65
:101F5C00386108E0FFF79EFC02463B69D31A642BFC
:101F6C0001D90323E6E1534B1B6803F40033002B28
:101F7C00F0D100E000BF7B681B6803F00203002B6C
:101F8C0063D04C4B5B6803F00C03002B0BD0494B1C
:101F9C005B6803F00C03082B1CD1464B5B6803F405
:101FAC008033002B16D1434B1B6803F00203002B2C
:101FBC0005D07B681B69012B01D00123BAE13D4B95
:101FCC001B6823F0F8027B685B69DB00394913431B
:101FDC000B603AE07B681B69002B20D0364B01224A
:101FEC001A60FFF757FC386108E0FFF753FC024614
:101FFC003B69D31A022B01D903239BE12D4B1B68A0
:10200C0003F00203002BF0D02A4B1B6823F0F802DC
:10201C007B685B69DB00274913430B6015E0264B9B
:10202C0000221A60FFF736FC386108E0FFF732FC3B
:10203C0002463B69D31A022B01D903237AE11D4BCB
:10204C001B6803F00203002BF0D17B681B6803F0C4
:10205C000803002B3AD07B689B69002B19D0174BD7
:10206C0001221A60FFF716FC386108E0FFF712FC3A
:10207C0002463B69D31A022B01D903235AE10D4BBB
:10208C005B6A03F00203002BF0D0012000F09AFAF7
:10209C001CE00A4B00221A60FFF7FCFB38610FE0D2
:1020AC00FFF7F8FB02463B69D31A022B08D903232E
:1020BC0040E100BF00100240000042428004424256
:1020CC009E4B5B6A03F00203002BE9D17B681B6813
:1020DC0003F00403002B00F0A6800023FB75974B44
:1020EC00DB6903F08053002B0DD1944BDB69934AD1
:1020FC0043F08053D361914BDB6903F08053BB6099
:10210C00BB680123FB758E4B1B6803F48073002B9B
:10211C0018D18B4B1B688A4A43F480731360FFF70A
:10212C00B9FB386108E0FFF7B5FB02463B69D31AEF
:10213C00642B01D90323FDE0814B1B6803F48073EE
:10214C00002BF0D07B68DB68012B06D17B4B1B6A24
:10215C007A4A43F0010313622DE07B68DB68002BA5
:10216C000CD1764B1B6A754A23F001031362734B37
:10217C001B6A724A23F0040313621CE07B68DB6861
:10218C00052B0CD16D4B1B6A6C4A43F00403136294
:10219C006A4B1B6A694A43F0010313620BE0674BFD
:1021AC001B6A664A23F001031362644B1B6A634A81
:1021BC0023F0040313627B68DB68002B15D0FFF758
:1021CC0069FB38610AE0FFF765FB02463B69D31AED
:1021DC0041F28832934201D90323ABE0574B1B6A7F
:1021EC0003F00203002BEED014E0FFF753FB386131
:1021FC000AE0FFF74FFB02463B69D31A41F28832E3
:10220C00934201D9032395E04C4B1B6A03F0020364
:10221C00002BEED1FB7D012B05D1484BDB69474AE6
:10222C0023F08053D3617B68DB69002B00F0818045
:10223C00424B5B6803F00C03082B61D07B68DB69B5
:10224C00022B46D13F4B00221A60FFF723FB38616B
:10225C0008E0FFF71FFB02463B69D31A022B01D99A
:10226C00032367E0354B1B6803F00073002BF0D1A0
:10227C007B681B6AB3F5803F08D1304B5B6823F455
:10228C0000327B689B682D4913434B602B4B5B687A
:10229C0023F474127B68196A7B685B6A0B432749C9
:1022AC0013434B60274B01221A60FFF7F3FA386196
:1022BC0008E0FFF7EFFA02463B69D31A022B01D96B
:1022CC00032337E01D4B1B6803F00073002BF0D089
:1022DC002FE01C4B00221A60FFF7DCFA386108E093
:1022EC00FFF7D8FA02463B69D31A022B01D9032314
:1022FC0020E0124B1B6803F00073002BF0D118E0A8
:10230C007B68DB69012B01D1012313E00B4B5B686C
:10231C00FB60FB6803F480327B681B6A9A4206D12F
:10232C00FB6803F470127B685B6A9A4201D001234C
:10233C0000E0002318461837BD4680BD001002404F
:10234C00007000406000424280B584B000AF7860FD
:10235C0039607B68002B01D10123D0E06A4B1B68EC
:10236C0003F007033A689A4210D9674B1B6823F0B5
:10237C00070265493B6813430B60634B1B6803F012
:10238C0007033A689A4201D00123B8E07B681B68C6
:10239C0003F00203002B20D07B681B6803F00403BE
:1023AC00002B05D0594B5B68584A43F4E0635360EB
:1023BC007B681B6803F00803002B05D0534B5B684C
:1023CC00524A43F460535360504B5B6823F0F00265
:1023DC007B689B684D4913434B607B681B6803F01B
:1023EC000103002B40D07B685B68012B07D1474B66
:1023FC001B6803F40033002B15D101237FE07B68AD
:10240C005B68022B07D1414B1B6803F00073002B58
:10241C0009D1012373E03D4B1B6803F00203002B31
:10242C0001D101236BE0394B5B6823F003027B681D
:10243C005B68364913434B60FFF72CFAF8600AE0EF
:10244C00FFF728FA0246FB68D31A41F2883293420E
:10245C0001D9032353E02D4B5B6803F00C027B681E
:10246C005B689B009A42EBD1274B1B6803F0070378
:10247C003A689A4210D2244B1B6823F00702224977
:10248C003B6813430B60204B1B6803F007033A684F
:10249C009A4201D0012332E07B681B6803F00403ED
:1024AC00002B08D0194B5B6823F4E0627B68DB6877
:1024BC00164913434B607B681B6803F00803002B21
:1024CC0009D0124B5B6823F460527B681B69DB00FC
:1024DC000E4913434B6000F021F802460B4B5B682E
:1024EC001B0903F00F030A49CB5C22FA03F3094AD8
:1024FC001360094B1B681846FFF78AF9002318462E
:10250C001037BD4680BD00BF0020024000100240C5
:10251C00342E0008480000204C00002080B487B006
:10252C0000AF0023FB600023BB6000237B61002312
:10253C007B6000233B611E4B5B68FB60FB6803F018
:10254C000C03042B02D0082B03D027E0194B3B6162
:10255C0027E0FB689B0C03F00F03174AD35C7B60EE
:10256C00FB6803F48033002B10D0114B5B685B0CC1
:10257C0003F00103114AD35CBB607B680D4A02FB7C
:10258C0003F2BB68B2FBF3F37B6104E07B680C4A9B
:10259C0002FB03F37B617B693B6102E0054B3B6112
:1025AC0000BF3B6918461C37BD4680BC704700BF56
:1025BC000010024000127A00442E0008542E00082D
:1025CC0000093D0080B485B000AF78600A4B1B68F1
:1025DC000A4AA2FB03235B0A7A6802FB03F3FB6043
:1025EC0000BFFB685A1EFA60002BF9D100BF00BF78
:1025FC001437BD4680BC704748000020D34D621094
:10260C0080B582B000AF78607B68002B01D10123CC
:10261C0041E07B6893F83D30DBB2002B06D17B6840
:10262C00002283F83C207868FFF75AF87B68022276
:10263C0083F83D207B681A687B6804331946104682
:10264C0000F056FA7B68012283F846207B68012251
:10265C0083F83E207B68012283F83F207B680122AF
:10266C0083F840207B68012283F841207B6801229B
:10267C0083F842207B68012283F843207B68012287
:10268C0083F844207B68012283F845207B68012273
:10269C0083F83D20002318460837BD4680BD000056
:1026AC0080B485B000AF78607B6893F83D30DBB2C6
:1026BC00012B01D0012335E07B68022283F83D20F9
:1026CC007B681B68DA687B681B6842F00102DA6081
:1026DC007B681B68164A934209D07B681B68B3F170
:1026EC00804F04D07B681B68124A934211D17B68DF
:1026FC001B689B6803F00703FB60FB68062B10D07C
:10270C007B681B681A687B681B6842F001021A60C0
:10271C0007E07B681B681A687B681B6842F0010243
:10272C001A60002318461437BD4680BC704700BFA2
:10273C00002C01400004004080B584B000AF7860EC
:10274C007B681B68DB68FB607B681B681B69BB6074
:10275C00BB6803F00203002B20D0FB6803F00203DC
:10276C00002B1BD07B681B686FF002021A617B6820
:10277C0001221A777B681B689B6903F00303002B0B
:10278C0003D0786800F098F905E0786800F08BF9D0
:10279C00786800F09AF97B6800221A77BB6803F01E
:1027AC000403002B20D0FB6803F00403002B1BD088
:1027BC007B681B686FF004021A617B6802221A772F
:1027CC007B681B689B6903F44073002B03D078680B
:1027DC0000F072F905E0786800F065F9786800F0AF
:1027EC0074F97B6800221A77BB6803F00803002B8E
:1027FC0020D0FB6803F00803002B1BD07B681B6800
:10280C006FF008021A617B6804221A777B681B68D8
:10281C00DB6903F00303002B03D0786800F04CF95C
:10282C0005E0786800F03FF9786800F04EF97B68B5
:10283C0000221A77BB6803F01003002B20D0FB6832
:10284C0003F01003002B1BD07B681B686FF0100289
:10285C001A617B6808221A777B681B68DB6903F4B2
:10286C004073002B03D0786800F026F905E07868F7
:10287C0000F019F9786800F028F97B6800221A77C3
:10288C00BB6803F00103002B0CD0FB6803F00103C1
:10289C00002B07D07B681B686FF001021A61786807
:1028AC00FEF7DAFDBB6803F08003002B0CD0FB684D
:1028BC0003F08003002B07D07B681B686FF080024D
:1028CC001A61786800F06FFABB6803F04003002BC4
:1028DC000CD0FB6803F04003002B07D07B681B680F
:1028EC006FF040021A61786800F0F8F8BB6803F0EA
:1028FC002003002B0CD0FB6803F02003002B07D027
:10290C007B681B686FF020021A61786800F042FA4D
:10291C0000BF1037BD4680BD80B584B000AF786075
:10292C0039600023FB737B6893F83C30012B01D199
:10293C000223B4E07B68012283F83C207B680222EE
:10294C0083F83D207B681B689B68BB60BB6823F0E9
:10295C007703BB60BB6823F47F43BB607B681B6859
:10296C00BA689A603B681B68B3F5005F3ED0B3F55C
:10297C00005F00F28780B3F5805F00F08680B3F5CE
:10298C00805F7FD8702B1AD0702B7BD8602B50D0E7
:10299C00602B77D8502B3CD0502B73D8402B58D071
:1029AC00402B6FD8302B64D0302B6BD8202B60D0C1
:1029BC00202B67D8002B5CD0102B5AD062E07B68A0
:1029CC0018683B6899683B685A683B68DB6800F09C
:1029DC006AF97B681B689B68BB60BB6843F0770334
:1029EC00BB607B681B68BA689A604FE07B681868AC
:1029FC003B6899683B685A683B68DB6800F053F9A0
:102A0C007B681B689A687B681B6842F480429A60FA
:102A1C003CE07B6818683B6859683B68DB681A4681
:102A2C0000F0CAF87B681B685021184600F021F9A9
:102A3C002CE07B6818683B6859683B68DB681A4671
:102A4C0000F0E8F87B681B686021184600F011F96B
:102A5C001CE07B6818683B6859683B68DB681A4661
:102A6C0000F0AAF87B681B684021184600F001F9B9
:102A7C000CE07B681A683B681B681946104600F02E
:102A8C00F8F803E00123FB7300E000BF7B68012230
:102A9C0083F83D207B68002283F83C20FB7B1846A2
:102AAC001037BD4680BD80B483B000AF786000BFE6
:102ABC000C37BD4680BC704780B483B000AF7860E3
:102ACC0000BF0C37BD4680BC704780B483B000AFEC
:102ADC00786000BF0C37BD4680BC704780B483B0B3
:102AEC0000AF786000BF0C37BD4680BC704700005B
:102AFC0080B485B000AF786039607B681B68FB6080
:102B0C007B682B4A934207D07B68B3F1804F03D08C
:102B1C007B68284A934208D1FB6823F07003FB6062
:102B2C003B685B68FA681343FB607B68204A9342FE
:102B3C0007D07B68B3F1804F03D07B681D4A93426A
:102B4C0008D1FB6823F44073FB603B68DB68FA68D0
:102B5C001343FB60FB6823F080023B685B69134303
:102B6C00FB607B68FA681A603B689A687B68DA627B
:102B7C003B681A687B689A627B680D4A934203D162
:102B8C003B681A697B681A637B6801225A617B680F
:102B9C001B6903F00103002B05D07B681B6923F034
:102BAC0001027B681A6100BF1437BD4680BC7047B8
:102BBC00002C01400004004080B487B000AFF860E6
:102BCC00B9607A60FB681B6A7B61FB681B6A23F047
:102BDC000102FB681A62FB689B693B613B6923F04D
:102BEC00F0033B617B681B013A6913433B617B69D2
:102BFC0023F00A037B617A69BB6813437B61FB6832
:102C0C003A699A61FB687A691A6200BF1C37BD4643
:102C1C0080BC704780B487B000AFF860B9607A6050
:102C2C00FB681B6A7B61FB681B6A23F01002FB6864
:102C3C001A62FB689B693B613B6923F470433B61FF
:102C4C007B681B033A6913433B617B6923F0A00348
:102C5C007B61BB681B017A6913437B61FB683A6932
:102C6C009A61FB687A691A6200BF1C37BD4680BC4A
:102C7C00704780B485B000AF786039607B689B6822
:102C8C00FB60FB6823F07003FB603A68FB6813433E
:102C9C0043F00703FB607B68FA689A6000BF143747
:102CAC00BD4680BC704780B487B000AFF860B96097
:102CBC007A603B60FB689B687B617B6923F47F4394
:102CCC007B613B681A027B681A43BB6813437A69C1
:102CDC0013437B61FB687A699A6000BF1C37BD4661
:102CEC0080BC704780B485B000AF786039607B6879
:102CFC0093F83C30012B01D1022341E07B68012287
:102D0C0083F83C207B68022283F83D207B681B689B
:102D1C005B68FB607B681B689B68BB60FB6823F08F
:102D2C007003FB603B681B68FA681343FB607B68AD
:102D3C001B68FA685A607B681B68144A934209D076
:102D4C007B681B68B3F1804F04D07B681B68104A0A
:102D5C0093420CD1BB6823F08003BB603B685B687B
:102D6C00BA681343BB607B681B68BA689A607B685F
:102D7C00012283F83D207B68002283F83C2000234D
:102D8C0018461437BD4680BC704700BF002C01406C
:102D9C000004004080B483B000AF786000BF0C37F3
:102DAC00BD4680BC704780B483B000AF786000BF74
:102DBC000C37BD4680BC704770B500260C4D0D4CD1
:102DCC00641BA410A64209D100F022F800260A4D7B
:102DDC000A4C641BA410A64205D170BD55F8043BE7
:102DEC0098470136EEE755F8043B98470136F2E771
:102DFC00582E0008582E0008582E00085C2E00088B
:102E0C0003460244934200D1704703F8011BF9E7D3
:102E1C00F8B500BFF8BC08BC9E467047F8B500BFBB
:082E2C00F8BC08BC9E4670478B
:102E34000000000000000000010203040607080966
:102E440002030405060708090A0B0C0D0E0F1010E7
:042E54000102000077
:042E5800310100083C
:042E5C000D0100085C
:102E60000100000000000000000000000100000060
:102E70000000000000000000010000000000000051
:102E80000000000001000000000000000000000041
:102E9000F401000014000000780000002800000089
:102EA000500000000100000000127A001000000035
:042EB000010000001D
:04000005080017A533
:00000001FF
