:020000040800F2
:1000000000280020A91800087D17000883170008A1
:10001000891700088F1700089517000800000000D6
:100020000000000000000000000000009B17000816
:10003000A717000800000000B3170008BF1700084A
:10004000F1180008F1180008F1180008F11800086C
:10005000F1180008F1180008F1180008F11800085C
:10006000F1180008F1180008F1180008F11800084C
:10007000F1180008F1180008F1180008F11800083C
:10008000F1180008F1180008F1180008F11800082C
:10009000F1180008F1180008F1180008F11800081C
:1000A000F1180008F1180008F1180008F11800080C
:1000B000CD170008F118000800000000F118000832
:1000C000F11800080000000000000000F11800080E
:1000D00000000000F1180008F118000800000000FE
:1000E000F1180008F1180008F118000800000000DD
:1000F0000000000000000000000000000000000000
:0C01000000000000000000005FF808F1A3
:10010C0010B5054C237833B9044B13B10448AFF345
:10011C0000800123237010BD54000020000000005B
:10012C00202F000808B5034B1BB103490348AFF35C
:10013C00008008BD0000000058000020202F00089F
:10014C0080B582B000AF786000224FF47E415848F1
:10015C0001F0CBFE01224FF47E41564801F0C5FE62
:10016C007B68092B00F2A08001A252F823F000BF9B
:10017C00A5010008B3010008F10100080B020008FA
:10018C00250200084B0200086502000873020008F3
:10019C00B3020008A502000801224FF400414448B4
:1001AC0001F0A3FE80E001224FF40071404801F001
:1001BC009CFE01224FF480513D4801F096FE012235
:1001CC004FF400513A4801F090FE01224FF4804167
:1001DC00374801F08AFE01224FF40041344801F007
:1001EC0084FE61E001224FF48041314801F07DFE34
:1001FC0001224FF400612E4801F077FE54E00122F9
:10020C004FF480412A4801F070FE01224FF4005156
:10021C00274801F06AFE47E001224FF400712448A0
:10022C0001F063FE01224FF48051214801F05DFE84
:10023C0001224FF400511E4801F057FE34E0012218
:10024C004FF480611A4801F050FE01224FF4005126
:10025C00174801F04AFE27E001224FF48061144850
:10026C0001F043FE20E001224FF48051104801F0D0
:10027C003CFE01224FF400510D4801F036FE0122E4
:10028C004FF480410A4801F030FE01224FF4004146
:10029C00074801F02AFE07E001224FF40051044800
:1002AC0001F023FE00E000BF00BF0837BD4680BD53
:1002BC0000080140000C014080B582B000AF7860AE
:1002CC0000224FF47E41584801F00FFE01224FF4FA
:1002DC007E41564801F009FE7B68092B00F2A08094
:1002EC0001A252F823F000BF1D0300082B030008E5
:1002FC0069030008830300089D030008C30300087A
:10030C00DD030008EB0300082B0400081D040008A3
:10031C0001224FF40041444801F0E7FD80E0012246
:10032C004FF40071404801F0E0FD01224FF4805180
:10033C003D4801F0DAFD01224FF400513A4801F03A
:10034C00D4FD01224FF48041374801F0CEFD01224B
:10035C004FF40041344801F0C8FD61E001224FF434
:10036C008041314801F0C1FD01224FF400612E485B
:10037C0001F0BBFD54E001224FF480412A4801F00A
:10038C00B4FD01224FF40051274801F0AEFD47E0C7
:10039C0001224FF40071244801F0A7FD01224FF413
:1003AC008051214801F0A1FD01224FF400511E485B
:1003BC0001F09BFD34E001224FF480611A4801F0FA
:1003CC0094FD01224FF40051174801F08EFD27E0F7
:1003DC0001224FF48061144801F087FD20E00122D6
:1003EC004FF48051104801F080FD01224FF4005170
:1003FC000D4801F07AFD01224FF480410A4801F0CA
:10040C0074FD01224FF40041074801F06EFD07E036
:10041C0001224FF40051044801F067FD00E000BFD9
:10042C0000BF0837BD4680BD000C014000080140EC
:10043C0080B582B000AF78607B68032B7AD801A2BC
:10044C0052F823F06104000899040008D104000854
:10045C000905000800228021384801F046FD0122E0
:10046C004FF48071354801F040FD00228021344862
:10047C0001F03BFD00224FF48071314801F035FD55
:10048C00304B1B681846FFF75BFE53E001228021BE
:10049C002A4801F02AFD00224FF48071274801F010
:1004AC0024FD00228021264801F01FFD00224FF47C
:1004BC008071234801F019FD224B5B681846FFF749
:1004CC003FFE37E0002280211C4801F00EFD002287
:1004DC004FF48071194801F008FD00228021184862
:1004EC0001F003FD01224FF48071154801F0FDFC71
:1004FC00144B9B681846FFF7DFFE1BE0002280219F
:10050C000E4801F0F2FC00224FF480710B4801F010
:10051C00ECFC012280210A4801F0E7FC00224FF498
:10052C008071074801F0E1FC064BDB681846FFF7C9
:10053C00C3FE00BF00BF0837BD4680BD00080140A8
:10054C00000C01407000002080B582B000AF7860D4
:10055C0039607B68092B17DD7B68364A82FB0312F6
:10056C009210DB17D31A344A13607968314B83FB32
:10057C0001239A10CB17D21A13469B0013445B002D
:10058C00CA1A2D4B5A6013E07B68092B10DC2A4BDE
:10059C0000221A607968274B83FB01239A10CB1732
:1005AC00D21A13469B0013445B00CA1A224B5A60A2
:1005BC003B68092B17DD3B681E4A82FB0312921025
:1005CC00DB17D31A1C4A936039681A4B83FB01233F
:1005DC009A10CB17D21A13469B0013445B00CA1A0D
:1005EC00154BDA6013E03B68092B10DC124B002230
:1005FC009A6039680F4B83FB01239A10CB17D21AE0
:10060C0013469B0013445B00CA1A0B4BDA600B4B6E
:10061C001B68032B02DD094B00221A60074B1B6879
:10062C005A1C06490A601846FFF702FF00BF08373C
:10063C00BD4680BD676666667000002080000020A5
:10064C0080B582B000AF00237B6089E0494A7B68AB
:10065C0052F8232048497B6841F82320474A7B689D
:10066C0052F8232043497B6841F823207B68002BF8
:10067C000AD10821424801F021FC034619463F4AA1
:10068C007B6842F823101AE07B68012B0AD11021F9
:10069C003B4801F013FC03461946384A7B6842F884
:1006AC0023100CE07B68022B09D12021344801F087
:1006BC0005FC03461946314A7B6842F823102D4A43
:1006CC007B6852F823202D497B6851F823309A42DD
:1006DC0043D1284A7B6852F8232027497B6851F87C
:1006EC0023309A4239D1244A7B6852F82320254979
:1006FC007B6851F823309A4217D01F4A7B6852F816
:10070C00232020497B6841F823201E4A7B6852F83D
:10071C002330002B21D11C4B4FF4FA721A601B4A68
:10072C007B68012142F8231017E0174B1B68013B33
:10073C00154A1360144B1B68002B0ED1124B4FF44F
:10074C00FA721A600F4A7B6852F82330002B04D1DE
:10075C000E4A7B68012142F823107B6801337B60D1
:10076C007B68022B7FF772AF00BF00BF0837BD4616
:10077C0080BD00BF0C0000201800002000000020ED
:10078C00000C0140240000203000002084000020D8
:10079C0080B500AFA54B1B68042B00F2408201A270
:1007AC0052F823F0C5070008790A0008530B00081B
:1007BC00850800085F0900089C4B03221A609C4BBB
:1007CC001A689C4B1B6813449B4A13609B4B1A681A
:1007DC009B4B1B6813449B4A1360954B1B689A4AAE
:1007EC0082FB03129211DB17D31A984A1360924BB7
:1007FC001B68954A82FB03129211DB17D31A944A99
:10080C0013608C4B1B68904A82FB03129211DB170E
:10081C00D31A904A1360894B1B688B4A82FB0312D4
:10082C009211DB17D31A8C4A1360864B1B68864ACD
:10083C0082FB03129211DB17D31A884A1360804B88
:10084C001B68814A82FB03129211DB17D31A844A6C
:10085C001360844B00221A60754B1B6819460020EC
:10086C0000F0BEFF0A21022000F0BAFF4FF47A71AB
:10087C00032000F0B5FFDBE100F0D4FD032000F015
:10088C00FDFF0346012B2AD1704B1B68013B6F4ABD
:10089C0013606F4B1B68013B6D4A13606B4B1B68FD
:1008AC00002B09DC624B1B68674A82FB0312921116
:1008BC00DB17D31A654A1360654B1B68002B09DCE8
:1008CC005D4B1B68604A82FB03129211DB17D31A33
:1008DC005F4A13604FF47A71032000F081FF02200D
:1008EC0000F0CCFF0346012B0BD1584B1B68584A28
:1008FC00126811461846FFF727FEFA21022000F075
:10090C006FFF002000F0BAFF0346012B08D1474BC4
:10091C0004221A60474B1B681946002000F060FF48
:10092C00504B1B68012B40F07C81404B0D221A6010
:10093C0042F21071012000F053FF0A21022000F056
:10094C004FFF0121484801F0E8FA464B00221A609B
:10095C0067E100F077FD002000F090FF0346012BCB
:10096C0008D1324B01221A60344B1B681946002007
:10097C0000F036FF032000F081FF0346012B2AD143
:10098C00344B1B68013B334A1360314B1B68013BF2
:10099C002F4A13602F4B1B68002B09DC254B1B685F
:1009AC00294A82FB03129211DB17D31A294A1360CE
:1009BC00274B1B68002B09DC1F4B1B68224A82FB50
:1009CC0003129211DB17D31A214A13604FF47A7178
:1009DC00032000F005FF022000F050FF0346012B1E
:1009EC000BD11C4B1B681A4A126811461846FFF7AC
:1009FC00ABFDFA21022000F0F3FE1A4B1B68012B11
:100A0C0040F01181094B0D221A6042F21071012045
:100A1C0000F0E6FE0A21022000F0E2FE012112485D
:100A2C0001F07BFA0F4B00221A60FCE090000020D2
:100A3C003800002034000020EC0000204000002092
:100A4C003C000020F0000020D34D6210E400002098
:100A5C0000010020F8000020FC000020E80000202D
:100A6C00F400002084000020000C014000F0FAFC8F
:100A7C00002000F003FF0346012B08D16D4B02222E
:100A8C001A606D4B1B681946002000F0A9FE03206C
:100A9C0000F0F4FE0346012B2AD1684B1B68013B86
:100AAC00664A1360664B1B68013B654A1360634BD7
:100ABC001B68002B09DC634B1B68634A82FB031227
:100ACC009211DB17D31A5D4A13605D4B1B68002B28
:100ADC0009DC5E4B1B685C4A82FB03129211DB172C
:100AEC00D31A574A13604FF47A71032000F078FE42
:100AFC00022000F0C3FE0346012B0BD1504B1B68A8
:100B0C004E4A126811461846FFF71EFDFA210220C4
:100B1C0000F066FE4E4B1B68012B40F08680454B67
:100B2C000D221A6042F21071012000F059FE0A21C8
:100B3C00022000F055FE0121464801F0EEF9444B2D
:100B4C0000221A6071E000F09DFC002000F096FE7F
:100B5C000346012B08D1374B03221A603E4B1B680E
:100B6C001946002000F03CFE032000F087FE0346EF
:100B7C00012B2AD1394B1B68013B384A1360304B8F
:100B8C001B68013B2E4A1360344B1B68002B09DC9D
:100B9C00294B1B682C4A82FB03129211DB17D31AC8
:100BAC002E4A1360264B1B68002B09DC274B1B6855
:100BBC00254A82FB03129211DB17D31A204A1360C9
:100BCC004FF47A71032000F00BFE022000F056FE69
:100BDC000346012B0BD11A4B1B68204A1268114695
:100BEC001846FFF7B1FCFA21022000F0F9FD184B72
:100BFC001B68012B1BD10F4B0D221A6042F2107196
:100C0C00012000F0EDFD0A21022000F0E9FD012198
:100C1C00104801F082F90E4B00221A6007E000BF69
:100C2C0006E000BF04E000BF02E000BF00E000BF30
:100C3C0000BF80BD900000203C000020FC00002084
:100C4C00E800002040000020D34D6210F00000208E
:100C5C0084000020000C014038000020F40000202B
:100C6C0080B500AF744B1B680B3B032B00F2B283B7
:100C7C0001A252F823F000BF4D10000835120008F5
:100C8C00950C0008710E000800F0CCFB6B4B1B6838
:100C9C00012B0ED1684B0E221A6042F2107101200A
:100CAC0000F09EFD0121664801F037F9634B0022EC
:100CBC001A60624B5B68012B27D10221604801F05E
:100CCC002CF9604B1B6803F57A735E4A13605E4B1C
:100CDC001B6803F57A735C4A13605B4B1B685B4AB9
:100CEC0093420ADD574B4FF47A721A60554B1A68CF
:100CFC00574B1B681344544A136042F21071012085
:100D0C0000F06EFD4D4B00225A604C4B9B68012B42
:100D1C0039D104214A4801F000F9474B03221A60EB
:100D2C00484B1B684B4A82FB03129211DB17D31AF8
:100D3C00494A1360444B1B68464A82FB03129211CA
:100D4C00DB17D31A454A1360414B1B68414A82FB9F
:100D5C0003129211DB17D31A414A1360394B1B68EB
:100D6C001946002000F03CFD344B00221A60334B36
:100D7C0000229A600A21022000F032FD4FF47A71B1
:100D8C00032000F02DFD022000F078FD0346012B1E
:100D9C0016D12C4B1B682F4A82FB03129211DB17C6
:100DAC00D01A294B1B682B4A82FB03129211DB17BA
:100DBC00D31A1946FFF7C8FBFA21022000F010FDE8
:100DCC00012000F05BFD0346012B40F005831A4B1C
:100DDC0003221A601B4B1B681E4A82FB03129211E2
:100DEC00DB17D31A1C4A1360174B1B68194A82FB7A
:100DFC0003129211DB17D31A184A1360144B1B6899
:100E0C00144A82FB03129211DB17D31A144A136093
:100E1C000C4B1B681946002000F0E2FC074B00222B
:100E2C001A600A21022000F0DBFC4FF47A710320D7
:100E3C0000F0D6FCD0E200BF90000020840000201F
:100E4C00000C014038000020EC0000209F860100BF
:100E5C0034000020D34D6210E4000020000100207B
:100E6C00F800002000F0EEFA6A4B1B68012B0ED143
:100E7C00694B0B221A6042F21071012000F0B0FC99
:100E8C000121664801F049F8624B00221A60614B5F
:100E9C005B68012B27D10221604801F03EF8604BC2
:100EAC001B6803F57A735E4A13605E4B1B6803F58F
:100EBC007A735C4A13605B4B1B685B4A93420ADD96
:100ECC00574B4FF47A721A60584B1A68544B1B6884
:100EDC001344544A136042F21071012000F080FC5C
:100EEC004C4B00225A604B4B9B68012B39D104218F
:100EFC004A4801F012F8484B03221A604B4B1B680E
:100F0C004B4A82FB03129211DB17D31A494A136026
:100F1C00444B1B68464A82FB03129211DB17D31A0F
:100F2C00454A13603E4B1B68414A82FB03129211E7
:100F3C00DB17D31A414A13603C4B1B68194600203F
:100F4C0000F04EFC334B00221A60324B00229A60A8
:100F5C000A21022000F044FC4FF47A71032000F0C7
:100F6C003FFC022000F08AFC0346012B16D12C4BCF
:100F7C001B682F4A82FB03129211DB17D01A294BE4
:100F8C001B682B4A82FB03129211DB17D31A1946EA
:100F9C00FFF7DAFAFA21022000F022FC012000F01F
:100FAC006DFC0346012B40F019821B4B03221A6087
:100FBC001E4B1B681E4A82FB03129211DB17D31ABD
:100FCC001C4A1360174B1B68194A82FB03129211BF
:100FDC00DB17D31A184A1360114B1B68144A82FB97
:100FEC0003129211DB17D31A144A13600F4B1B68B0
:100FFC001946002000F0F4FB064B00221A600A216F
:10100C00022000F0EDFB4FF47A71032000F0E8FBB6
:10101C00E4E100BF8400002090000020000C01409F
:10102C0034000020EC0000209F86010038000020D6
:10103C00D34D6210E400002000010020F8000020D5
:10104C0000F010FA6A4B1B68012B0ED1694B0C2275
:10105C001A6042F21071012000F0C2FB01216648B7
:10106C0000F05BFF624B00221A60614B5B68012B46
:10107C0027D10221604800F050FF604B1B6803F53C
:10108C007A735E4A13605E4B1B6803F57A735C4A95
:10109C0013605B4B1B685B4A93420ADD574B4FF462
:1010AC007A721A60554B1A68574B1B681344544A92
:1010BC00136042F21071012000F092FB4C4B0022A5
:1010CC005A604B4B9B68012B39D104214A4800F0E4
:1010DC0024FF484B03221A604C4B1B684C4A82FB82
:1010EC0003129211DB17D31A4A4A13604A4B1B683E
:1010FC00474A82FB03129211DB17D31A474A13603B
:10110C00474B1B68424A82FB03129211DB17D31A1E
:10111C00444A13603D4B1B681946002000F060FBED
:10112C00334B00221A60324B00229A600A210220B3
:10113C0000F056FB4FF47A71032000F051FB0220B3
:10114C0000F09CFB0346012B16D12D4B1B68304A3B
:10115C0082FB03129211DB17D01A284B1B682C4A06
:10116C0082FB03129211DB17D31A1946FFF7ECF925
:10117C00FA21022000F034FB012000F07FFB034633
:10118C00012B40F02D811B4B03221A601F4B1B6857
:10119C001F4A82FB03129211DB17D31A1D4A1360EC
:1011AC001D4B1B681A4A82FB03129211DB17D31AD0
:1011BC001A4A13601A4B1B68154A82FB03129211D0
:1011CC00DB17D31A174A1360104B1B681946002003
:1011DC0000F006FB064B00221A600A21022000F0E8
:1011EC00FFFA4FF47A71032000F0FAFAF8E000BF2E
:1011FC008400002090000020000C014040000020E2
:10120C00F00000209F8601003C00002038000020E8
:10121C00D34D6210E4000020EC00002000010020FF
:10122C0034000020F800002000F02CF96F4B1B68F4
:10123C00012B0ED16E4B0D221A6042F2107101205F
:10124C0000F0CEFA01216B4800F067FE674B0022DC
:10125C001A60664B5B68012B27D10221654800F0B0
:10126C005CFE654B1B6803F57A73634A1360634B32
:10127C001B6803F57A73614A1360604B1B68604A04
:10128C0093420ADD5C4B4FF47A721A605D4B1A681C
:10129C00594B1B681344594A136042F210710120D8
:1012AC0000F09EFA514B00225A60504B9B68012B68
:1012BC0039D104214F4800F030FE4D4B03221A6007
:1012CC00514B1B68514A82FB03129211DB17D31A44
:1012DC004F4A13604F4B1B684C4A82FB031292110E
:1012EC00DB17D31A4C4A13604C4B1B68474A82FBE2
:1012FC0003129211DB17D31A494A1360424B1B6835
:10130C001946002000F06CFA384B00221A60374B5B
:10131C0000229A600A21022000F062FA4FF47A71DE
:10132C00032000F05DFA022000F0A8FA0346012B1E
:10133C0016D1324B1B68354A82FB03129211DB1714
:10134C00D01A2D4B1B68314A82FB03129211DB170A
:10135C00D31A1946FFF7F8F8FA21022000F040FAE8
:10136C00012000F08BFA0346012B3BD1204B0322CA
:10137C001A60254B1B68254A82FB03129211DB175E
:10138C00D31A234A1360234B1B68204A82FB031297
:10139C009211DB17D31A204A1360204B1B681B4A8F
:1013AC0082FB03129211DB17D31A1D4A1360164BE2
:1013BC001B681946002000F013FA0C4B00221A602F
:1013CC000A21022000F00CFA4FF47A71032000F08D
:1013DC0007FA07E000BF06E000BF04E000BF02E030
:1013EC0000BF00E000BF00BF80BD00BF8400002034
:1013FC0090000020000C01403C000020F000002078
:10140C009F8601004000002038000020D34D621060
:10141C00E4000020EC00002000010020340000203B
:10142C00F800002080B500AF01221121044800F023
:10143C005CFD00222E21024800F057FD00BF80BD4C
:10144C000008014080B500AF01221421044800F0CF
:10145C004CFD00222B21024800F047FD00BF80BD4F
:10146C000008014080B500AF01220A21044800F0B9
:10147C003CFD00223521024800F037FD00BF80BD45
:10148C000008014080B500AF01222221044800F081
:10149C002CFD00221D21024800F027FD00BF80BD5D
:1014AC000008014080B500AF00F01EFA00F00EF805
:1014BC0000F094F800F046F8034801F073F9FFF7D8
:1014CC0067F9FFF7CDFBFAE70401002080B590B077
:1014DC0000AF07F1180328220021184601F012FD75
:1014EC003B1D00221A605A609A60DA601A6102236E
:1014FC00BB610123BB621023FB6200237B6307F1FA
:10150C001803184600F022FD0346002B01D000F012
:10151C00D3F80F237B600023BB600023FB60002308
:10152C003B6100237B613B1D0021184600F08EFFC0
:10153C000346002B01D000F0BFF800BF4037BD467A
:10154C0080BD000080B586B000AF07F10803002213
:10155C001A605A609A60DA603B4600221A605A6040
:10156C001D4B4FF080421A601B4B41F63F725A6084
:10157C00194B00229A60184B0922DA60164B002294
:10158C001A61154B00229A61134801F0BBF803460F
:10159C00002B01D000F090F84FF48053BB6007F1A2
:1015AC00080319460C4801F039FA0346002B01D008
:1015BC0000F082F800233B6000237B603B46194619
:1015CC00054801F011FC0346002B01D000F074F823
:1015DC0000BF1837BD4680BD0401002080B586B021
:1015EC0000AF07F1080300221A605A609A60DA60B3
:1015FC00284B9B69274A43F004039361254B9B6955
:10160C0003F004037B607B68224B9B69214A43F007
:10161C00080393611F4B9B6903F008033B603B6815
:10162C0000224FF6FF711C4800F05FFC00224FF6C1
:10163C0087711A4800F059FC4FF6FF73BB60012309
:10164C00FB6000233B6102237B6107F10803194611
:10165C00114800F0B9FA4FF68773BB600123FB60A9
:10166C0000233B6102237B6107F1080319460B48F9
:10167C0000F0AAFA7823BB600023FB6001233B61D6
:10168C0007F108031946054800F09EFA00BF183709
:10169C00BD4680BD0010024000080140000C014016
:1016AC0080B582B000AF786000F0B8F8FEF7C8FFE4
:1016BC0000BF0837BD4680BD80B400AF72B600BF16
:1016CC00FEE7000080B485B000AF154B9B69144A4F
:1016DC0043F001039361124B9B6903F00103BB6060
:1016EC00BB680F4BDB690E4A43F08053D3610C4B44
:1016FC00DB6903F080537B607B680A4B5B68FB60A3
:10170C00FB6823F0E063FB60FB6843F08063FB60E5
:10171C00044AFB68536000BF1437BD4680BC704759
:10172C00001002400000014080B584B000AF78602A
:10173C007B681B68B3F1804F13D10C4BDB690B4AF0
:10174C0043F00103D361094BDB6903F00103FB6038
:10175C00FB68002200211C2000F0FFF91C2000F087
:10176C0018FA00BF1037BD4680BD00BF0010024004
:10177C0080B400AFFEE780B400AFFEE780B400AFEA
:10178C00FEE780B400AFFEE780B400AFFEE780B4A4
:10179C0000AF00BFBD4680BC704780B400AF00BF37
:1017AC00BD4680BC704780B400AF00BFBD4680BC56
:1017BC00704780B500AF00F0DDF800BF80BD0000C1
:1017CC0080B500AF024801F039F800BF80BD00BF02
:1017DC000401002080B400AF00BFBD4680BC704740
:1017EC0080B483B000AF78603960094B1B683A68ED
:1017FC0092FBF3F207497B6841F82320064A7B6889
:10180C00002142F8231000BF0C37BD4680BC704746
:10181C0048000020BC0000209400002080B483B05D
:10182C0000AF00237B601CE0124A7B6852F8233027
:10183C00002B08DD0F4A7B6852F823305A1E0D49E5
:10184C007B6841F823200B4A7B6852F82330002B2D
:10185C0004DC094A7B68012142F823107B680133C0
:10186C007B607B68092BDFDD00BF00BF0C37BD46FA
:10187C0080BC7047BC0000209400002080B483B072
:10188C0000AF7860044A7B6852F8233018460C3756
:10189C00BD4680BC704700BF94000020FFF79AFF44
:1018AC000B480C490C4A002302E0D458C4500433B2
:1018BC00C4188C42F9D3094A094C002301E0136087
:1018CC000432A242FBD301F0F9FAFFF7EBFD7047AB
:1018DC000000002054000020642F00085400002059
:1018EC0050010020FEE7000080B500AF084B1B68DC
:1018FC00074A43F010031360032000F023F90F2074
:10190C0000F008F8FFF7DEFE0023184680BD00BF8C
:10191C000020024080B582B000AF7860124B1A688C
:10192C00124B1B7819464FF47A73B3FBF1F3B2FBED
:10193C00F3F3184600F03BF90346002B01D00123CA
:10194C000EE07B680F2B0AD8002279684FF0FF302D
:10195C0000F003F9064A7B681360002300E00123C2
:10196C0018460837BD4680BD4400002050000020BA
:10197C004C00002080B400AF054B1B781A46054B79
:10198C001B681344034A136000BFBD4680BC7047FC
:10199C00500000204C01002080B400AF024B1B68AB
:1019AC001846BD4680BC70474C01002080B485B001
:1019BC0000AF78607B6803F00703FB600C4BDB68BF
:1019CC00BB60BA684FF6FF031340BB60FB681A029A
:1019DC00BB68134343F0BF6343F40033BB60044A5A
:1019EC00BB68D36000BF1437BD4680BC704700BFD6
:1019FC0000ED00E080B400AF044BDB681B0A03F081
:101A0C0007031846BD4680BC704700BF00ED00E0E0
:101A1C0080B483B000AF0346FB7197F90730002BFD
:101A2C000BDBFB7903F01F02064997F907305B09C2
:101A3C00012000FA02F241F8232000BF0C37BD460A
:101A4C0080BC704700E100E080B483B000AF034677
:101A5C003960FB7197F90730002B0ADB3B68DAB26F
:101A6C000C4997F907301201D2B20B4483F80023CA
:101A7C000AE03B68DAB20849FB7903F00F03043B38
:101A8C001201D2B20B441A7600BF0C37BD4680BC93
:101A9C00704700BF00E100E000ED00E080B489B0C9
:101AAC0000AFF860B9607A60FB6803F00703FB6174
:101ABC00FB69C3F10703042B28BF0423BB61FB693B
:101ACC000433062B02D9FB69033B00E000237B6146
:101ADC004FF0FF32BB6902FA03F3DA43BB681A40DA
:101AEC007B699A404FF0FF317B6901FA03F3D943CC
:101AFC007B680B40134318462437BD4680BC7047A7
:101B0C0080B582B000AF78607B68013BB3F1807F19
:101B1C0001D301230FE00A4A7B68013B53600F217C
:101B2C004FF0FF30FFF790FF054B00229A60044BFB
:101B3C0007221A60002318460837BD4680BD00BF37
:101B4C0010E000E080B582B000AF78607868FFF7F5
:101B5C002DFF00BF0837BD4680BD80B586B000AFF5
:101B6C000346B9607A60FB7300237B61FFF742FF89
:101B7C0078617A68B9687869FFF790FF024697F93F
:101B8C000F3011461846FFF75FFF00BF1837BD46F0
:101B9C0080BD80B582B000AF0346FB7197F907306A
:101BAC001846FFF735FF00BF0837BD4680BD80B52E
:101BBC0082B000AF78607868FFF7A2FF0346184642
:101BCC000837BD4680BD000080B48BB000AF786094
:101BDC00396000237B6200233B6248E101227B6A6F
:101BEC0002FA03F3FB613B681B68FA691340BB61A3
:101BFC00BA69FB699A4240F037813B685B68A34A3B
:101C0C0093425ED0A14A934275D8A14A934258D0D0
:101C1C009F4A93426FD89F4A934252D09D4A934217
:101C2C0069D89D4A93424CD09B4A934263D89B4AB5
:101C3C00934246D0994A93425DD8122B2AD8122B44
:101C4C0059D801A252F823F0CF1C0008A91C000897
:101C5C00BB1C0008FD1C0008031D0008031D000828
:101C6C00031D0008031D0008031D0008031D0008C8
:101C7C00031D0008031D0008031D0008031D0008B8
:101C8C00031D0008031D0008031D0008B11C0008FB
:101C9C00C51C0008824A934213D02CE03B68DB68D9
:101CAC003B6229E03B68DB6804333B6224E03B6821
:101CBC00DB6808333B621FE03B68DB680C333B623C
:101CCC001AE03B689B68002B02D104233B6213E0B3
:101CDC003B689B68012B05D108233B627B68FA6942
:101CEC001A6109E008233B627B68FA695A6103E0D8
:101CFC0000233B6200E000BFBB69FF2B01D87B686F
:101D0C0001E07B6804337B61BB69FF2B02D87B6AE3
:101D1C009B0002E07B6A083B9B003B617B691A6875
:101D2C000F213B6901FA03F3DB431A40396A3B6923
:101D3C0001FA03F31A437B691A603B685B6803F092
:101D4C008053002B00F09080564B9B69554A43F012
:101D5C0001039361534B9B6903F00103BB60BB68A8
:101D6C00514A7B6A9B08023352F82330FB607B6A32
:101D7C0003F003039B000F2202FA03F3DB43FA6820
:101D8C001340FB607B68494A93420DD07B68484AFC
:101D9C00934207D07B68474A934201D1022304E067
:101DAC00032302E0012300E000237A6A02F003021D
:101DBC0092009340FA681343FB603B497B6A9B0893
:101DCC000233FA6841F823203B685B6803F4801304
:101DDC00002B06D0384B9A683749BB6913438B608C
:101DEC0006E0354B9A68BB69DB43334913408B6083
:101DFC003B685B6803F40013002B06D02E4BDA68AB
:101E0C002D49BB691343CB6006E02B4BDA68BB69E9
:101E1C00DB4329491340CB603B685B6803F4003318
:101E2C00002B06D0244B5A682349BB6913434B60E3
:101E3C0006E0214B5A68BB69DB431F4913404B60DA
:101E4C003B685B6803F48033002B06D01A4B1A688E
:101E5C001949BB6913430B6006E0174B1A68BB6941
:101E6C00DB43154913400B607B6A01337B623B6893
:101E7C001A687B6A22FA03F3002B7FF4AFAE00BF23
:101E8C0000BF2C37BD4680BC704700BF000032102D
:101E9C000000311000002210000021100000121070
:101EAC000000111000100240000001400008014029
:101EBC00000C0140001001400004014080B485B0CA
:101ECC0000AF78600B467B807B689A687B881340F8
:101EDC00002B02D00123FB7301E00023FB73FB7B7F
:101EEC0018461437BD4680BC704780B483B000AF31
:101EFC0078600B467B8013467B707B78002B03D07D
:101F0C007A887B681A6103E07B881A047B681A6103
:101F1C0000BF0C37BD4680BC704780B485B000AFA5
:101F2C0078600B467B807B68DB68FB607A88FB689B
:101F3C0013401A04FB68D9437B880B401A437B6817
:101F4C001A6100BF1437BD4680BC704780B586B09F
:101F5C0000AF78607B68002B01D101236CE27B68B9
:101F6C001B6803F00103002B00F08780924B5B6829
:101F7C0003F00C03042B0CD08F4B5B6803F00C03A9
:101F8C00082B12D18C4B5B6803F48033B3F5803F84
:101F9C000BD1894B1B6803F40033002B6CD07B688E
:101FAC005B68002B68D1012346E27B685B68B3F564
:101FBC00803F06D1804B1B687F4A43F4803313600B
:101FCC002EE07B685B68002B0CD17B4B1B687A4A3C
:101FDC0023F480331360784B1B68774A23F48023F7
:101FEC0013601DE07B685B68B3F5A02F0CD1724BBE
:101FFC001B68714A43F4802313606F4B1B686E4A55
:10200C0043F4803313600BE06B4B1B686A4A23F478
:10201C0080331360684B1B68674A23F4802313607A
:10202C007B685B68002B13D0FFF7B6FC386108E0C7
:10203C00FFF7B2FC02463B69D31A642B01D9032388
:10204C00FAE15D4B1B6803F40033002BF0D014E075
:10205C00FFF7A2FC386108E0FFF79EFC02463B69E3
:10206C00D31A642B01D90323E6E1534B1B6803F409
:10207C000033002BF0D100E000BF7B681B6803F03D
:10208C000203002B63D04C4B5B6803F00C03002B5A
:10209C000BD0494B5B6803F00C03082B1CD1464B4F
:1020AC005B6803F48033002B16D1434B1B6803F0A1
:1020BC000203002B05D07B681B69012B01D0012387
:1020CC00BAE13D4B1B6823F0F8027B685B69DB00CF
:1020DC00394913430B603AE07B681B69002B20D015
:1020EC00364B01221A60FFF757FC386108E0FFF706
:1020FC0053FC02463B69D31A022B01D903239BE103
:10210C002D4B1B6803F00203002BF0D02A4B1B68ED
:10211C0023F0F8027B685B69DB00274913430B60F3
:10212C0015E0264B00221A60FFF736FC386108E0F8
:10213C00FFF732FC02463B69D31A022B01D9032369
:10214C007AE11D4B1B6803F00203002BF0D17B6876
:10215C001B6803F00803002B3AD07B689B69002BAB
:10216C0019D0174B01221A60FFF716FC386108E0F2
:10217C00FFF712FC02463B69D31A022B01D9032349
:10218C005AE10D4B5B6A03F00203002BF0D00120E7
:10219C0000F09AFA1CE00A4B00221A60FFF7FCFBD5
:1021AC0038610FE0FFF7F8FB02463B69D31A022BAC
:1021BC0008D9032340E100BF001002400000424256
:1021CC00800442429E4B5B6A03F00203002BE9D170
:1021DC007B681B6803F00403002B00F0A68000232F
:1021EC00FB75974BDB6903F08053002B0DD1944B9F
:1021FC00DB69934A43F08053D361914BDB6903F065
:10220C008053BB60BB680123FB758E4B1B6803F4CA
:10221C008073002B18D18B4B1B688A4A43F4807354
:10222C001360FFF7B9FB386108E0FFF7B5FB024616
:10223C003B69D31A642B01D90323FDE0814B1B6846
:10224C0003F48073002BF0D07B68DB68012B06D184
:10225C007B4B1B6A7A4A43F0010313622DE07B68C7
:10226C00DB68002B0CD1764B1B6A754A23F00103FB
:10227C001362734B1B6A724A23F0040313621CE053
:10228C007B68DB68052B0CD16D4B1B6A6C4A43F0E9
:10229C00040313626A4B1B6A694A43F0010313621D
:1022AC000BE0674B1B6A664A23F001031362644B15
:1022BC001B6A634A23F0040313627B68DB68002B00
:1022CC0015D0FFF769FB38610AE0FFF765FB0246A2
:1022DC003B69D31A41F28832934201D90323ABE014
:1022EC00574B1B6A03F00203002BEED014E0FFF7F0
:1022FC0053FB38610AE0FFF74FFB02463B69D31AE8
:10230C0041F28832934201D9032395E04C4B1B6A6E
:10231C0003F00203002BEED1FB7D012B05D1484BC2
:10232C00DB69474A23F08053D3617B68DB69002B60
:10233C0000F08180424B5B6803F00C03082B61D0EA
:10234C007B68DB69022B46D13F4B00221A60FFF7FA
:10235C0023FB386108E0FFF71FFB02463B69D31AE9
:10236C00022B01D9032367E0354B1B6803F0007384
:10237C00002BF0D17B681B6AB3F5803F08D1304B42
:10238C005B6823F400327B689B682D4913434B60D8
:10239C002B4B5B6823F474127B68196A7B685B6A4D
:1023AC000B43274913434B60274B01221A60FFF75D
:1023BC00F3FA386108E0FFF7EFFA02463B69D31AEB
:1023CC00022B01D9032337E01D4B1B6803F000736C
:1023DC00002BF0D02FE01C4B00221A60FFF7DCFA28
:1023EC00386108E0FFF7D8FA02463B69D31A022B92
:1023FC0001D9032320E0124B1B6803F00073002B60
:10240C00F0D118E07B68DB69012B01D1012313E0CB
:10241C000B4B5B68FB60FB6803F480327B681B6AC8
:10242C009A4206D1FB6803F470127B685B6A9A428D
:10243C0001D0012300E0002318461837BD4680BDAB
:10244C0000100240007000406000424280B584B031
:10245C0000AF786039607B68002B01D10123D0E09C
:10246C006A4B1B6803F007033A689A4210D9674B12
:10247C001B6823F0070265493B6813430B60634BF1
:10248C001B6803F007033A689A4201D00123B8E0B5
:10249C007B681B6803F00203002B20D07B681B6851
:1024AC0003F00403002B05D0594B5B68584A43F4E6
:1024BC00E06353607B681B6803F00803002B05D0B6
:1024CC00534B5B68524A43F460535360504B5B6808
:1024DC0023F0F0027B689B684D4913434B607B688B
:1024EC001B6803F00103002B40D07B685B68012B59
:1024FC0007D1474B1B6803F40033002B15D1012384
:10250C007FE07B685B68022B07D1414B1B6803F0B3
:10251C000073002B09D1012373E03D4B1B6803F0C2
:10252C000203002B01D101236BE0394B5B6823F0D4
:10253C0003027B685B68364913434B60FFF72CFA48
:10254C00F8600AE0FFF728FA0246FB68D31A41F25A
:10255C008832934201D9032353E02D4B5B6803F07F
:10256C000C027B685B689B009A42EBD1274B1B6883
:10257C0003F007033A689A4210D2244B1B6823F0ED
:10258C00070222493B6813430B60204B1B6803F086
:10259C0007033A689A4201D0012332E07B681B683A
:1025AC0003F00403002B08D0194B5B6823F4E062A2
:1025BC007B68DB68164913434B607B681B6803F030
:1025CC000803002B09D0124B5B6823F460527B6824
:1025DC001B69DB000E4913434B6000F021F80246E7
:1025EC000B4B5B681B0903F00F030A49CB5C22FA07
:1025FC0003F3094A1360094B1B681846FFF78AF965
:10260C00002318461037BD4680BD00BF0020024095
:10261C0000100240382F0008440000204C0000201D
:10262C0080B487B000AF0023FB600023BB600023A5
:10263C007B6100237B6000233B611E4B5B68FB606E
:10264C00FB6803F00C03042B02D0082B03D027E00B
:10265C00194B3B6127E0FB689B0C03F00F03174AF7
:10266C00D35C7B60FB6803F48033002B10D0114BE0
:10267C005B685B0C03F00103114AD35CBB607B68A5
:10268C000D4A02FB03F2BB68B2FBF3F37B6104E07F
:10269C007B680C4A02FB03F37B617B693B6102E0C4
:1026AC00054B3B6100BF3B6918461C37BD4680BCDF
:1026BC00704700BF0010024000127A00482F00083B
:1026CC00582F000800093D0080B485B000AF786039
:1026DC000A4B1B680A4AA2FB03235B0A7A6802FBBB
:1026EC0003F3FB6000BFFB685A1EFA60002BF9D1A4
:1026FC0000BF00BF1437BD4680BC704744000020AB
:10270C00D34D621080B582B000AF78607B68002B2F
:10271C0001D1012341E07B6893F83D30DBB2002B03
:10272C0006D17B68002283F83C207868FEF7FCFF1A
:10273C007B68022283F83D207B681A687B6804332F
:10274C001946104600F056FA7B68012283F84620A1
:10275C007B68012283F83E207B68012283F83F20AE
:10276C007B68012283F840207B68012283F841209A
:10277C007B68012283F842207B68012283F8432086
:10278C007B68012283F844207B68012283F8452072
:10279C007B68012283F83D20002318460837BD468C
:1027AC0080BD000080B485B000AF78607B6893F882
:1027BC003D30DBB2012B01D0012335E07B680222D6
:1027CC0083F83D207B681B68DA687B681B6842F0E5
:1027DC000102DA607B681B68164A934209D07B6859
:1027EC001B68B3F1804F04D07B681B68124A93427C
:1027FC0011D17B681B689B6803F00703FB60FB68C7
:10280C00062B10D07B681B681A687B681B6842F02B
:10281C0001021A6007E07B681B681A687B681B68FA
:10282C0042F001021A60002318461437BD4680BCE2
:10283C00704700BF002C01400004004080B584B0FC
:10284C0000AF78607B681B68DB68FB607B681B688B
:10285C001B69BB60BB6803F00203002B20D0FB6834
:10286C0003F00203002B1BD07B681B686FF0020285
:10287C001A617B6801221A777B681B689B6903F0DD
:10288C000303002B03D0786800F098F905E0786812
:10289C0000F08BF9786800F09AF97B6800221A77BF
:1028AC00BB6803F00403002B20D0FB6803F0040387
:1028BC00002B1BD07B681B686FF004021A617B68CD
:1028CC0002221A777B681B689B6903F44073002B08
:1028DC0003D0786800F072F905E0786800F065F9CB
:1028EC00786800F074F97B6800221A77BB6803F0F3
:1028FC000803002B20D0FB6803F00803002B1BD02F
:10290C007B681B686FF008021A617B6804221A77D7
:10291C007B681B68DB6903F00303002B03D078682A
:10292C0000F04CF905E0786800F03FF9786800F0A9
:10293C004EF97B6800221A77BB6803F01003002B5A
:10294C0020D0FB6803F01003002B1BD07B681B68A6
:10295C006FF010021A617B6808221A777B681B687B
:10296C00DB6903F44073002B03D0786800F026F980
:10297C0005E0786800F019F9786800F028F97B68B0
:10298C0000221A77BB6803F00103002B0CD0FB6804
:10299C0003F00103002B07D07B681B686FF001026A
:1029AC001A617868FEF77CFEBB6803F08003002B8D
:1029BC000CD0FB6803F08003002B07D07B681B68EE
:1029CC006FF080021A61786800F06FFABB6803F050
:1029DC004003002B0CD0FB6803F04003002B07D006
:1029EC007B681B686FF040021A61786800F0F8F899
:1029FC00BB6803F02003002B0CD0FB6803F0200312
:102A0C00002B07D07B681B686FF020021A61786876
:102A1C0000F042FA00BF1037BD4680BD80B584B0CF
:102A2C0000AF786039600023FB737B6893F83C300F
:102A3C00012B01D10223B4E07B68012283F83C20F6
:102A4C007B68022283F83D207B681B689B68BB6017
:102A5C00BB6823F07703BB60BB6823F47F43BB6088
:102A6C007B681B68BA689A603B681B68B3F5005FAB
:102A7C003ED0B3F5005F00F28780B3F5805F00F0C5
:102A8C008680B3F5805F7FD8702B1AD0702B7BD8E3
:102A9C00602B50D0602B77D8502B3CD0502B73D858
:102AAC00402B58D0402B6FD8302B64D0302B6BD8A8
:102ABC00202B60D0202B67D8002B5CD0102B5AD049
:102ACC0062E07B6818683B6899683B685A683B68A9
:102ADC00DB6800F06AF97B681B689B68BB60BB68AD
:102AEC0043F07703BB607B681B68BA689A604FE061
:102AFC007B6818683B6899683B685A683B68DB6878
:102B0C0000F053F97B681B689A687B681B6842F479
:102B1C0080429A603CE07B6818683B6859683B6867
:102B2C00DB681A4600F0CAF87B681B68502118460F
:102B3C0000F021F92CE07B6818683B6859683B6809
:102B4C00DB681A4600F0E8F87B681B6860211846C1
:102B5C0000F011F91CE07B6818683B6859683B6809
:102B6C00DB681A4600F0AAF87B681B6840211846FF
:102B7C0000F001F90CE07B681A683B681B68194689
:102B8C00104600F0F8F803E00123FB7300E000BFEF
:102B9C007B68012283F83D207B68002283F83C206F
:102BAC00FB7B18461037BD4680BD80B483B000AFA8
:102BBC00786000BF0C37BD4680BC704780B483B0D2
:102BCC0000AF786000BF0C37BD4680BC704780B446
:102BDC0083B000AF786000BF0C37BD4680BC704737
:102BEC0080B483B000AF786000BF0C37BD4680BCAA
:102BFC007047000080B485B000AF786039607B68A6
:102C0C001B68FB607B682B4A934207D07B68B3F14F
:102C1C00804F03D07B68284A934208D1FB6823F08D
:102C2C007003FB603B685B68FA681343FB607B686E
:102C3C00204A934207D07B68B3F1804F03D07B6866
:102C4C001D4A934208D1FB6823F44073FB603B6838
:102C5C00DB68FA681343FB60FB6823F080023B6877
:102C6C005B691343FB607B68FA681A603B689A687F
:102C7C007B68DA623B681A687B689A627B680D4AEB
:102C8C00934203D13B681A697B681A637B68012203
:102C9C005A617B681B6903F00103002B05D07B682C
:102CAC001B6923F001027B681A6100BF1437BD4613
:102CBC0080BC7047002C01400004004080B487B0F9
:102CCC0000AFF860B9607A60FB681B6A7B61FB68D7
:102CDC001B6A23F00102FB681A62FB689B693B616B
:102CEC003B6923F0F0033B617B681B013A6913439A
:102CFC003B617B6923F00A037B617A69BB681343F0
:102D0C007B61FB683A699A61FB687A691A6200BF59
:102D1C001C37BD4680BC704780B487B000AFF860EC
:102D2C00B9607A60FB681B6A7B61FB681B6A23F0E5
:102D3C001002FB681A62FB689B693B613B6923F4D8
:102D4C0070433B617B681B033A6913433B617B69AE
:102D5C0023F0A0037B61BB681B017A6913437B6181
:102D6C00FB683A699A61FB687A691A6200BF1C3782
:102D7C00BD4680BC704780B485B000AF78603960C8
:102D8C007B689B68FB60FB6823F07003FB603A6810
:102D9C00FB68134343F00703FB607B68FA689A6097
:102DAC0000BF1437BD4680BC704780B487B000AFFD
:102DBC00F860B9607A603B60FB689B687B617B69FB
:102DCC0023F47F437B613B681A027B681A43BB6820
:102DDC0013437A6913437B61FB687A699A6000BF7D
:102DEC001C37BD4680BC704780B485B000AF78609E
:102DFC0039607B6893F83C30012B01D1022341E010
:102E0C007B68012283F83C207B68022283F83D20FA
:102E1C007B681B685B68FB607B681B689B68BB609E
:102E2C00FB6823F07003FB603B681B68FA68134374
:102E3C00FB607B681B68FA685A607B681B68144AE5
:102E4C00934209D07B681B68B3F1804F04D07B6838
:102E5C001B68104A93420CD1BB6823F08003BB6003
:102E6C003B685B68BA681343BB607B681B68BA68D5
:102E7C009A607B68012283F83D207B68002283F8EE
:102E8C003C20002318461437BD4680BC704700BF59
:102E9C00002C01400004004080B483B000AF786087
:102EAC0000BF0C37BD4680BC704780B483B000AF08
:102EBC00786000BF0C37BD4680BC704770B50026EB
:102ECC000C4D0D4C641BA410A64209D100F022F845
:102EDC0000260A4D0A4C641BA410A64205D170BDF5
:102EEC0055F8043B98470136EEE755F8043B9847F4
:102EFC000136F2E75C2F00085C2F00085C2F0008FD
:102F0C00602F000803460244934200D1704703F837
:102F1C00011BF9E7F8B500BFF8BC08BC9E4670472A
:0C2F2C00F8B500BFF8BC08BC9E4670471A
:102F38000000000000000000010203040607080961
:102F480002030405060708090A0B0C0D0E0F1010E2
:042F58000102000072
:042F5C003101000837
:042F60000D01000857
:102F6400010000000000000000000000010000005B
:102F7400000000000000000001000000000000004C
:102F8400000000000100000000000000000000003C
:102F9400F401000088130000B80B0000581B000067
:102FA400D007000000127A000A00000010000000A0
:042FB4000100000018
:04000005080018A92E
:00000001FF
