:020000040800F2
:100000000028002011130008E5110008EB1100087A
:10001000F1110008F7110008FD11000800000000B0
:1000200000000000000000000000000003120008B3
:100030000F120008000000001B1200082712000821
:1000400059130008591300085913000859130008E0
:1000500059130008591300085913000859130008D0
:1000600059130008591300085913000859130008C0
:1000700059130008591300085913000859130008B0
:1000800059130008591300085913000859130008A0
:100090005913000859130008591300085913000890
:1000A0005913000859130008591300085913000880
:1000B0003512000859130008000000005913000809
:1000C0005913000800000000000000005913000848
:1000D0000000000059130008591300080000000038
:1000E00059130008591300085913000800000000B4
:1000F0000000000000000000000000000000000000
:0C01000000000000000000005FF808F1A3
:10010C0010B5054C237833B9044B13B10448AFF345
:10011C0000800123237010BD50000020000000005F
:10012C008829000808B5034B1BB103490348AFF3FA
:10013C00008008BD00000000540000208829000841
:10014C0080B582B000AF786000224FF47E415848F1
:10015C0001F0FFFB01224FF47E41564801F0F9FB00
:10016C007B68092B00F2A08001A252F823F000BF9B
:10017C00A5010008B3010008F10100080B020008FA
:10018C00250200084B0200086502000873020008F3
:10019C00B3020008A502000801224FF400414448B4
:1001AC0001F0D7FB80E001224FF40071404801F0D0
:1001BC00D0FB01224FF480513D4801F0CAFB0122D3
:1001CC004FF400513A4801F0C4FB01224FF4804136
:1001DC00374801F0BEFB01224FF40041344801F0D6
:1001EC00B8FB61E001224FF48041314801F0B1FBD2
:1001FC0001224FF400612E4801F0ABFB54E00122C8
:10020C004FF480412A4801F0A4FB01224FF4005125
:10021C00274801F09EFB47E001224FF4007124486F
:10022C0001F097FB01224FF48051214801F091FB22
:10023C0001224FF400511E4801F08BFB34E00122E7
:10024C004FF480611A4801F084FB01224FF40051F5
:10025C00174801F07EFB27E001224FF4806114481F
:10026C0001F077FB20E001224FF48051104801F09F
:10027C0070FB01224FF400510D4801F06AFB012282
:10028C004FF480410A4801F064FB01224FF4004115
:10029C00074801F05EFB07E001224FF400510448CF
:1002AC0001F057FB00E000BF00BF0837BD4680BD22
:1002BC0000080140000C014080B582B000AF7860AE
:1002CC0000224FF47E41584801F043FB01224FF4C9
:1002DC007E41564801F03DFB7B68092B00F2A08063
:1002EC0001A252F823F000BF1D0300082B030008E5
:1002FC0069030008830300089D030008C30300087A
:10030C00DD030008EB0300082B0400081D040008A3
:10031C0001224FF40041444801F01BFB80E0012214
:10032C004FF40071404801F014FB01224FF480514E
:10033C003D4801F00EFB01224FF400513A4801F008
:10034C0008FB01224FF48041374801F002FB0122E7
:10035C004FF40041344801F0FCFA61E001224FF403
:10036C008041314801F0F5FA01224FF400612E482A
:10037C0001F0EFFA54E001224FF480412A4801F0D9
:10038C00E8FA01224FF40051274801F0E2FA47E065
:10039C0001224FF40071244801F0DBFA01224FF4E2
:1003AC008051214801F0D5FA01224FF400511E482A
:1003BC0001F0CFFA34E001224FF480611A4801F0C9
:1003CC00C8FA01224FF40051174801F0C2FA27E095
:1003DC0001224FF48061144801F0BBFA20E00122A5
:1003EC004FF48051104801F0B4FA01224FF400513F
:1003FC000D4801F0AEFA01224FF480410A4801F099
:10040C00A8FA01224FF40041074801F0A2FA07E0D4
:10041C0001224FF40051044801F09BFA00E000BFA8
:10042C0000BF0837BD4680BD000C014000080140EC
:10043C0080B582B000AF78607B68032B7AD801A2BC
:10044C0052F823F06104000899040008D104000854
:10045C000905000800228021384801F07AFA0122AF
:10046C004FF48071354801F074FA00228021344831
:10047C0001F06FFA00224FF48071314801F069FAF3
:10048C00304B1B681846FFF75BFE53E001228021BE
:10049C002A4801F05EFA00224FF48071274801F0DF
:1004AC0058FA00228021264801F053FA00224FF41A
:1004BC008071234801F04DFA224B5B681846FFF718
:1004CC003FFE37E0002280211C4801F042FA002256
:1004DC004FF48071194801F03CFA00228021184831
:1004EC0001F037FA01224FF48071154801F031FA0E
:1004FC00144B9B681846FFF7DFFE1BE0002280219F
:10050C000E4801F026FA00224FF480710B4801F0DE
:10051C0020FA012280210A4801F01BFA00224FF434
:10052C008071074801F015FA064BDB681846FFF797
:10053C00C3FE00BF00BF0837BD4680BD00080140A8
:10054C00000C01406C00002080B582B000AF7860D8
:10055C0039607B68092B17DD7B68364A82FB0312F6
:10056C009210DB17D31A344A13607968314B83FB32
:10057C0001239A10CB17D21A13469B0013445B002D
:10058C00CA1A2D4B5A6013E07B68092B10DC2A4BDE
:10059C0000221A607968274B83FB01239A10CB1732
:1005AC00D21A13469B0013445B00CA1A224B5A60A2
:1005BC003B68092B17DD3B681E4A82FB0312921025
:1005CC00DB17D31A1C4A936039681A4B83FB01233F
:1005DC009A10CB17D21A13469B0013445B00CA1A0D
:1005EC00154BDA6013E03B68092B10DC124B002230
:1005FC009A6039680F4B83FB01239A10CB17D21AE0
:10060C0013469B0013445B00CA1A0B4BDA600B4B6E
:10061C001B68032B02DD094B00221A60074B1B6879
:10062C005A1C06490A601846FFF702FF00BF08373C
:10063C00BD4680BD676666666C0000207C000020AD
:10064C0080B582B000AF00237B6089E0494A7B68AB
:10065C0052F8232048497B6841F82320474A7B689D
:10066C0052F8232043497B6841F823207B68002BF8
:10067C000AD10821424801F055F9034619463F4A70
:10068C007B6842F823101AE07B68012B0AD11021F9
:10069C003B4801F047F903461946384A7B6842F853
:1006AC0023100CE07B68022B09D12021344801F087
:1006BC0039F903461946314A7B6842F823102D4A12
:1006CC007B6852F823202D497B6851F823309A42DD
:1006DC0043D1284A7B6852F8232027497B6851F87C
:1006EC0023309A4239D1244A7B6852F82320254979
:1006FC007B6851F823309A4217D01F4A7B6852F816
:10070C00232020497B6841F823201E4A7B6852F83D
:10071C002330002B21D11C4B4FF4FA721A601B4A68
:10072C007B68012142F8231017E0174B1B68013B33
:10073C00154A1360144B1B68002B0ED1124B4FF44F
:10074C00FA721A600F4A7B6852F82330002B04D1DE
:10075C000E4A7B68012142F823107B6801337B60D1
:10076C007B68022B7FF772AF00BF00BF0837BD4616
:10077C0080BD00BF0C0000201800002000000020ED
:10078C00000C0140240000203000002080000020DC
:10079C0080B500AF8F4B1B68042B00F2088201A2BE
:1007AC0052F823F0C5070008090A0008E30A0008FC
:1007BC002D08000807090008864B03221A60864B97
:1007CC001B68864A82FB03129211DB17D31A844AE8
:1007DC001360844B1B68814A82FB03129211DB1756
:1007EC00D31A814A1360814B1B687C4A82FB03122B
:1007FC009211DB17D31A7E4A13607E4B00221A60CB
:10080C00754B1B681946002000F01EFD0A210220C2
:10081C0000F01AFD4FF47A71032000F015FDCFE1C2
:10082C0000F034FB032000F05DFD0346012B2AD1C0
:10083C006B4B1B68013B6A4A13606B4B1B68013B9B
:10084C00694A1360664B1B68002B09DC624B1B6802
:10085C00624A82FB03129211DB17D31A604A1360AF
:10086C00614B1B68002B09DC5E4B1B685B4A82FBEF
:10087C0003129211DB17D31A5B4A13604FF47A718F
:10088C00032000F0E1FC022000F02CFD0346012BBC
:10089C000BD1534B1B68544A126811461846FFF78C
:1008AC0053FEFA21022000F0CFFC002000F01AFDCC
:1008BC000346012B08D1474B04221A604B4B1B6893
:1008CC001946002000F0C0FC4A4B1B68012B40F07D
:1008DC007081404B0D221A6042F21071012000F021
:1008EC00B3FC0A21022000F0AFFC0121424801F0C8
:1008FC0048F8404B00221A605BE100F0D7FA002068
:10090C0000F0F0FC0346012B08D1324B01221A6097
:10091C00314B1B681946002000F096FC032000F0B8
:10092C00E1FC0346012B2AD1314B1B68013B304AB9
:10093C0013602D4B1B68013B2B4A13602C4B1B681F
:10094C00002B09DC294B1B68244A82FB03129211F1
:10095C00DB17D31A264A1360234B1B68002B09DCC8
:10096C00204B1B681D4A82FB03129211DB17D31A12
:10097C001D4A13604FF47A71032000F065FC0220CD
:10098C0000F0B0FC0346012B0BD1194B1B68164A27
:10099C00126811461846FFF7D7FDFA21022000F025
:1009AC0053FC144B1B68012B40F00581094B0D22A5
:1009BC001A6042F21071012000F046FC0A2102205C
:1009CC0000F042FC01210C4800F0DBFF094B002237
:1009DC001A60F0E08C0000203C000020D34D621027
:1009EC00E800002034000020E40000203800002043
:1009FC00E000002080000020000C014000F066FAAE
:100A0C00002000F06FFC0346012B08D16D4B022235
:100A1C001A606D4B1B681946002000F015FC032072
:100A2C0000F060FC0346012B2AD1684B1B68013B8C
:100A3C00664A1360664B1B68013B654A1360634B47
:100A4C001B68002B09DC634B1B68634A82FB031297
:100A5C009211DB17D31A5D4A13605D4B1B68002B98
:100A6C0009DC5E4B1B685C4A82FB03129211DB179C
:100A7C00D31A574A13604FF47A71032000F0E4FB49
:100A8C00022000F02FFC0346012B0BD1504B1B68AE
:100A9C004E4A126811461846FFF756FDFA210220FD
:100AAC0000F0D2FB4E4B1B68012B40F08680454B6F
:100ABC000D221A6042F21071012000F0C5FB0A21D0
:100ACC00022000F0C1FB0121464800F05AFF444BC4
:100ADC0000221A6071E000F009FA002000F002FC1C
:100AEC000346012B08D1374B03221A60394B1B6884
:100AFC001946002000F0A8FB032000F0F3FB03468E
:100B0C00012B2AD1384B1B68013B374A1360304B01
:100B1C001B68013B2E4A1360334B1B68002B09DC0E
:100B2C00294B1B682C4A82FB03129211DB17D31A38
:100B3C002D4A1360264B1B68002B09DC274B1B68C6
:100B4C00254A82FB03129211DB17D31A204A136039
:100B5C004FF47A71032000F077FB022000F0C2FB07
:100B6C000346012B0BD11A4B1B681F4A1268114606
:100B7C001846FFF7E9FCFA21022000F065FB184B40
:100B8C001B68012B1BD10F4B0D221A6042F2107106
:100B9C00012000F059FB0A21022000F055FB012135
:100BAC00104800F0EEFE0E4B00221A6007E000BF6A
:100BBC0006E000BF04E000BF02E000BF00E000BFA1
:100BCC0000BF80BD8C00002038000020E800002011
:100BDC00E40000203C000020D34D621034000020C3
:100BEC0080000020000C0140E000002080B500AF28
:100BFC009B4B1B680B3B032B00F2268101A252F886
:100C0C0023F000BFFD0D0008290E0008210C000880
:100C1C00D10D000800F03AF9924B1B68012B0ED154
:100C2C008F4B0E221A6042F21071012000F00CFB67
:100C3C0001218D4800F0A5FE8A4B00221A60894BD9
:100C4C005B68012B29D10221874800F09AFE874B63
:100C5C001B6803F57A73854A1360854B1B6803F593
:100C6C007A73834A1360814B1B68824A934203DD7B
:100C7C007E4B4FF47A721A607D4B1B687D4A93420F
:100C8C0003DD7B4B4FF47A721A6042F21071012033
:100C9C0000F0DAFA734B00225A60724B9B68012BFE
:100CAC0039D10421704800F06CFE6D4B03221A60A0
:100CBC006F4B1B68704A82FB03129211DB17D31A1D
:100CCC006E4A1360694B1B686B4A82FB03129211CC
:100CDC00DB17D31A6A4A13606A4B1B68664A82FB9D
:100CEC0003129211DB17D31A674A1360604B1B680F
:100CFC001946002000F0A8FA5A4B00221A60594BF2
:100D0C0000229A600A21022000F09EFA4FF47A71B8
:100D1C00032000F099FA022000F0E4FA0346012BBC
:100D2C0016D1534B1B68544A82FB03129211DB17EA
:100D3C00D01A4E4B1B68504A82FB03129211DB17E0
:100D4C00D31A1946FFF700FCFA21022000F07CFAB6
:100D5C00012000F0C7FA0346012B77D1404B032248
:100D6C001A60434B1B68444A82FB03129211DB1737
:100D7C00D31A424A13603D4B1B683F4A82FB031255
:100D8C009211DB17D31A3E4A13603E4B1B683A4A4A
:100D9C0082FB03129211DB17D31A3B4A1360344BBC
:100DAC001B681946002000F04FFA2E4B00221A60E7
:100DBC000A21022000F048FA4FF47A71032000F067
:100DCC0043FA43E000F072F8264B1B68012B3FD12D
:100DDC00234B0B221A6042F21071012000F034FAFE
:100DEC000121214800F0CDFD1E4B00221A602FE09E
:100DFC0000F06CF81B4B1B68012B2BD1184B0C22F1
:100E0C001A6042F21071012000F01EFA01211648FE
:100E1C0000F0B7FD134B00221A601BE000F066F8DF
:100E2C00104B1B68012B17D10D4B0D221A6042F28F
:100E3C001071012000F008FA01210B4800F0A1FD0F
:100E4C00084B00221A6007E000BF06E000BF04E078
:100E5C0000BF02E000BF00E000BF00BF80BD00BFCC
:100E6C008C00002080000020000C01403400002089
:100E7C003C0000209F860100D34D6210E80000204A
:100E8C00E400002038000020E000002080B500AF16
:100E9C0001221121044800F05CFD00222E210248A1
:100EAC0000F057FD00BF80BD0008014080B500AFC9
:100EBC0001221421044800F04CFD00222B21024891
:100ECC0000F047FD00BF80BD0008014080B500AFB9
:100EDC0001220A21044800F03CFD00223521024881
:100EEC0000F037FD00BF80BD0008014080B500AFA9
:100EFC0001222221044800F02CFD00221D21024871
:100F0C0000F027FD00BF80BD0008014080B500AF98
:100F1C0000F01EFA00F00EF800F094F800F046F81D
:100F2C00034801F073F9FFF733FCFFF75FFEFAE7B4
:100F3C00EC00002080B590B000AF07F11803282218
:100F4C000021184601F012FD3B1D00221A605A6068
:100F5C009A60DA601A610223BB610123BB62102321
:100F6C00FB6200237B6307F11803184600F022FD97
:100F7C000346002B01D000F0D3F80F237B60002335
:100F8C00BB600023FB6000233B6100237B613B1DA6
:100F9C000021184600F08EFF0346002B01D000F014
:100FAC00BFF800BF4037BD4680BD000080B586B09D
:100FBC0000AF07F1080300221A605A609A60DA60E9
:100FCC003B4600221A605A601D4B4FF080421A605B
:100FDC001B4B41F63F725A60194B00229A60184B1A
:100FEC000922DA60164B00221A61154B00229A6115
:100FFC00134801F0BBF80346002B01D000F090F829
:10100C004FF48053BB6007F1080319460C4801F0FC
:10101C0039FA0346002B01D000F082F800233B6024
:10102C0000237B603B461946054801F011FC034642
:10103C00002B01D000F074F800BF1837BD4680BDFE
:10104C00EC00002080B586B000AF07F10803002249
:10105C001A605A609A60DA60284B9B69274A43F001
:10106C0004039361254B9B6903F004037B607B684D
:10107C00224B9B69214A43F0080393611F4B9B69E8
:10108C0003F008033B603B6800224FF6FF711C48DD
:10109C0000F05FFC00224FF687711A4800F059FCF3
:1010AC004FF6FF73BB600123FB6000233B610223FF
:1010BC007B6107F108031946114800F0B9FA4FF6A5
:1010CC008773BB600123FB6000233B6102237B61C0
:1010DC0007F1080319460B4800F0AAFA7823BB6005
:1010EC000023FB6001233B6107F108031946054807
:1010FC0000F09EFA00BF1837BD4680BD00100240BC
:10110C0000080140000C014080B582B000AF78604F
:10111C0000F0B8F8FFF794FA00BF0837BD4680BD61
:10112C0080B400AF72B600BFFEE7000080B485B09B
:10113C0000AF154B9B69144A43F001039361124BAA
:10114C009B6903F00103BB60BB680F4BDB690E4A64
:10115C0043F08053D3610C4BDB6903F080537B600D
:10116C007B680A4B5B68FB60FB6823F0E063FB6009
:10117C00FB6843F08063FB60044AFB68536000BF6C
:10118C001437BD4680BC704700100240000001407F
:10119C0080B584B000AF78607B681B68B3F1804F7A
:1011AC0013D10C4BDB690B4A43F00103D361094BA0
:1011BC00DB6903F00103FB60FB68002200211C20AB
:1011CC0000F0FFF91C2000F018FA00BF1037BD46E4
:1011DC0080BD00BF0010024080B400AFFEE780B4B9
:1011EC0000AFFEE780B400AFFEE780B400AFFEE7CF
:1011FC0080B400AFFEE780B400AF00BFBD4680BC3A
:10120C00704780B400AF00BFBD4680BC704780B44F
:10121C0000AF00BFBD4680BC704780B500AF00F08A
:10122C00DDF800BF80BD000080B500AF024801F0C2
:10123C0039F800BF80BD00BFEC00002080B400AFC7
:10124C0000BFBD4680BC704780B483B000AF7860EF
:10125C003960094B1B683A6892FBF3F207497B68CB
:10126C0041F82320064A7B68002142F8231000BF76
:10127C000C37BD4680BC704744000020B8000020ED
:10128C009000002080B483B000AF00237B601CE092
:10129C00124A7B6852F82330002B08DD0F4A7B681A
:1012AC0052F823305A1E0D497B6841F823200B4A13
:1012BC007B6852F82330002B04DC094A7B6801213F
:1012CC0042F823107B6801337B607B68092BDFDDE0
:1012DC0000BF00BF0C37BD4680BC7047B800002073
:1012EC009000002080B483B000AF7860044A7B6823
:1012FC0052F8233018460C37BD4680BC704700BFEF
:10130C0090000020FFF79AFF0B480C490C4A002371
:10131C0002E0D458C4500433C4188C42F9D3094A9F
:10132C00094C002301E013600432A242FBD301F00C
:10133C00F9FAFFF7EBFD7047000000205000002089
:10134C00CC2900085000002038010020FEE70000E6
:10135C0080B500AF084B1B68074A43F010031360BD
:10136C00032000F023F90F2000F008F8FFF7DEFE51
:10137C000023184680BD00BF0020024080B582B01B
:10138C0000AF7860124B1A68124B1B7819464FF459
:10139C007A73B3FBF1F3B2FBF3F3184600F03BF9AD
:1013AC000346002B01D001230EE07B680F2B0AD8DB
:1013BC00002279684FF0FF3000F003F9064A7B6891
:1013CC001360002300E0012318460837BD4680BD9A
:1013DC00400000204C0000204800002080B400AFEA
:1013EC00054B1B781A46054B1B681344034A1360C4
:1013FC0000BFBD4680BC70474C000020340100206B
:10140C0080B400AF024B1B681846BD4680BC7047C9
:10141C003401002080B485B000AF78607B6803F0A5
:10142C000703FB600C4BDB68BB60BA684FF6FF032D
:10143C001340BB60FB681A02BB68134343F0BF63E5
:10144C0043F40033BB60044ABB68D36000BF14375D
:10145C00BD4680BC704700BF00ED00E080B400AF1B
:10146C00044BDB681B0A03F007031846BD4680BC1F
:10147C00704700BF00ED00E080B483B000AF0346BE
:10148C00FB7197F90730002B0BDBFB7903F01F0284
:10149C00064997F907305B09012000FA02F241F87E
:1014AC00232000BF0C37BD4680BC704700E100E034
:1014BC0080B483B000AF03463960FB7197F90730F5
:1014CC00002B0ADB3B68DAB20C4997F907301201A2
:1014DC00D2B20B4483F800230AE03B68DAB2084925
:1014EC00FB7903F00F03043B1201D2B20B441A76C2
:1014FC0000BF0C37BD4680BC704700BF00E100E068
:10150C0000ED00E080B489B000AFF860B9607A609B
:10151C00FB6803F00703FB61FB69C3F10703042BB2
:10152C0028BF0423BB61FB690433062B02D9FB697A
:10153C00033B00E000237B614FF0FF32BB6902FAF2
:10154C0003F3DA43BB681A407B699A404FF0FF31D2
:10155C007B6901FA03F3D9437B680B4013431846AC
:10156C002437BD4680BC704780B582B000AF786030
:10157C007B68013BB3F1807F01D301230FE00A4A62
:10158C007B68013B53600F214FF0FF30FFF790FF5A
:10159C00054B00229A60044B07221A600023184660
:1015AC000837BD4680BD00BF10E000E080B582B0BA
:1015BC0000AF78607868FFF72DFF00BF0837BD4695
:1015CC0080BD80B586B000AF0346B9607A60FB730E
:1015DC0000237B61FFF742FF78617A68B96878690C
:1015EC00FFF790FF024697F90F3011461846FFF7A8
:1015FC005FFF00BF1837BD4680BD80B582B000AF1D
:10160C000346FB7197F907301846FFF735FF00BF0B
:10161C000837BD4680BD80B582B000AF7860786871
:10162C00FFF7A2FF034618460837BD4680BD0000F1
:10163C0080B48BB000AF7860396000237B620023EC
:10164C003B6248E101227B6A02FA03F3FB613B68CF
:10165C001B68FA691340BB61BA69FB699A4240F096
:10166C0037813B685B68A34A93425ED0A14A9342A0
:10167C0075D8A14A934258D09F4A93426FD89F4A3B
:10168C00934252D09D4A934269D89D4A93424CD082
:10169C009B4A934263D89B4A934246D0994A9342C1
:1016AC005DD8122B2AD8122B59D801A252F823F04C
:1016BC0037170008111700082317000865170008D2
:1016CC006B1700086B1700086B1700086B170008E6
:1016DC006B1700086B1700086B1700086B170008D6
:1016EC006B1700086B1700086B1700086B170008C6
:1016FC006B170008191700082D170008824A93422F
:10170C0013D02CE03B68DB683B6229E03B68DB686C
:10171C0004333B6224E03B68DB6808333B621FE028
:10172C003B68DB680C333B621AE03B689B68002B20
:10173C0002D104233B6213E03B689B68012B05D16B
:10174C0008233B627B68FA691A6109E008233B6253
:10175C007B68FA695A6103E000233B6200E000BF3A
:10176C00BB69FF2B01D87B6801E07B6804337B618C
:10177C00BB69FF2B02D87B6A9B0002E07B6A083BAB
:10178C009B003B617B691A680F213B6901FA03F3EB
:10179C00DB431A40396A3B6901FA03F31A437B694C
:1017AC001A603B685B6803F08053002B00F090805C
:1017BC00564B9B69554A43F001039361534B9B690C
:1017CC0003F00103BB60BB68514A7B6A9B08023380
:1017DC0052F82330FB607B6A03F003039B000F225B
:1017EC0002FA03F3DB43FA681340FB607B68494A57
:1017FC0093420DD07B68484A934207D07B68474A96
:10180C00934201D1022304E0032302E0012300E010
:10181C0000237A6A02F0030292009340FA681343A1
:10182C00FB603B497B6A9B080233FA6841F8232032
:10183C003B685B6803F48013002B06D0384B9A6826
:10184C003749BB6913438B6006E0354B9A68BB691B
:10185C00DB43334913408B603B685B6803F4001334
:10186C00002B06D02E4BDA682D49BB691343CB6095
:10187C0006E02B4BDA68BB69DB4329491340CB608C
:10188C003B685B6803F40033002B06D0244B5A688A
:10189C002349BB6913434B6006E0214B5A68BB6973
:1018AC00DB431F4913404B603B685B6803F4803398
:1018BC00002B06D01A4B1A681949BB6913430B60ED
:1018CC0006E0174B1A68BB69DB43154913400B60E4
:1018DC007B6A01337B623B681A687B6A22FA03F3EA
:1018EC00002B7FF4AFAE00BF00BF2C37BD4680BCD1
:1018FC00704700BF000032100000311000002210B1
:10190C000000211000001210000011100010024005
:10191C000000014000080140000C01400010014093
:10192C000004014080B485B000AF78600B467B802A
:10193C007B689A687B881340002B02D00123FB73D1
:10194C0001E00023FB73FB7B18461437BD4680BCBB
:10195C00704780B483B000AF78600B467B80134631
:10196C007B707B78002B03D07A887B681A6103E04C
:10197C007B881A047B681A6100BF0C37BD4680BC9B
:10198C00704780B485B000AF78600B467B807B6875
:10199C00DB68FB607A88FB6813401A04FB68D94348
:1019AC007B880B401A437B681A6100BF1437BD4615
:1019BC0080BC704780B586B000AF78607B68002B28
:1019CC0001D101236CE27B681B6803F00103002B3F
:1019DC0000F08780924B5B6803F00C03042B0CD057
:1019EC008F4B5B6803F00C03082B12D18C4B5B689C
:1019FC0003F48033B3F5803F0BD1894B1B6803F4A0
:101A0C000033002B6CD07B685B68002B68D1012302
:101A1C0046E27B685B68B3F5803F06D1804B1B6860
:101A2C007F4A43F4803313602EE07B685B68002BA5
:101A3C000CD17B4B1B687A4A23F480331360784BB0
:101A4C001B68774A23F4802313601DE07B685B6876
:101A5C00B3F5A02F0CD1724B1B68714A43F4802351
:101A6C0013606F4B1B686E4A43F4803313600BE0BA
:101A7C006B4B1B686A4A23F480331360684B1B68FA
:101A8C00674A23F4802313607B685B68002B13D0B8
:101A9C00FFF7B6FC386108E0FFF7B2FC02463B6981
:101AAC00D31A642B01D90323FAE15D4B1B6803F4B1
:101ABC000033002BF0D014E0FFF7A2FC386108E0F3
:101ACC00FFF79EFC02463B69D31A642B01D9032312
:101ADC00E6E1534B1B6803F40033002BF0D100E01C
:101AEC0000BF7B681B6803F00203002B63D04C4BD8
:101AFC005B6803F00C03002B0BD0494B5B6803F0C5
:101B0C000C03082B1CD1464B5B6803F48033002B71
:101B1C0016D1434B1B6803F00203002B05D07B68E6
:101B2C001B69012B01D00123BAE13D4B1B6823F04B
:101B3C00F8027B685B69DB00394913430B603AE0C0
:101B4C007B681B69002B20D0364B01221A60FFF7F3
:101B5C0057FC386108E0FFF753FC02463B69D31A87
:101B6C00022B01D903239BE12D4B1B6803F00203CD
:101B7C00002BF0D02A4B1B6823F0F8027B685B69C2
:101B8C00DB00274913430B6015E0264B00221A603B
:101B9C00FFF736FC386108E0FFF732FC02463B6980
:101BAC00D31A022B01D903237AE11D4B1B6803F0D6
:101BBC000203002BF0D17B681B6803F00803002B99
:101BCC003AD07B689B69002B19D0174B01221A6005
:101BDC00FFF716FC386108E0FFF712FC02463B6980
:101BEC00D31A022B01D903235AE10D4B5B6A03F084
:101BFC000203002BF0D0012000F09AFA1CE00A4BF3
:101C0C0000221A60FFF7FCFB38610FE0FFF7F8FBCE
:101C1C0002463B69D31A022B08D9032340E100BFCB
:101C2C000010024000004242800442429E4B5B6A1C
:101C3C0003F00203002BE9D17B681B6803F004035B
:101C4C00002B00F0A6800023FB75974BDB6903F09B
:101C5C008053002B0DD1944BDB69934A43F0805396
:101C6C00D361914BDB6903F08053BB60BB680123EC
:101C7C00FB758E4B1B6803F48073002B18D18B4BB8
:101C8C001B688A4A43F480731360FFF7B9FB386111
:101C9C0008E0FFF7B5FB02463B69D31A642B01D968
:101CAC000323FDE0814B1B6803F48073002BF0D001
:101CBC007B68DB68012B06D17B4B1B6A7A4A43F0AD
:101CCC00010313622DE07B68DB68002B0CD1764B93
:101CDC001B6A754A23F001031362734B1B6A724A29
:101CEC0023F0040313621CE07B68DB68052B0CD12A
:101CFC006D4B1B6A6C4A43F0040313626A4B1B6AFC
:101D0C00694A43F0010313620BE0674B1B6A664A96
:101D1C0023F001031362644B1B6A634A23F0040330
:101D2C0013627B68DB68002B15D0FFF769FB386109
:101D3C000AE0FFF765FB02463B69D31A41F2883291
:101D4C00934201D90323ABE0574B1B6A03F0020308
:101D5C00002BEED014E0FFF753FB38610AE0FFF7DD
:101D6C004FFB02463B69D31A41F28832934201D9A8
:101D7C00032395E04C4B1B6A03F00203002BEED1BE
:101D8C00FB7D012B05D1484BDB69474A23F080537F
:101D9C00D3617B68DB69002B00F08180424B5B6870
:101DAC0003F00C03082B61D07B68DB69022B46D156
:101DBC003F4B00221A60FFF723FB386108E0FFF766
:101DCC001FFB02463B69D31A022B01D9032367E0A0
:101DDC00354B1B6803F00073002BF0D17B681B6A3A
:101DEC00B3F5803F08D1304B5B6823F400327B683D
:101DFC009B682D4913434B602B4B5B6823F4741287
:101E0C007B68196A7B685B6A0B43274913434B60F9
:101E1C00274B01221A60FFF7F3FA386108E0FFF74D
:101E2C00EFFA02463B69D31A022B01D9032337E0A0
:101E3C001D4B1B6803F00073002BF0D02FE01C4BE4
:101E4C0000221A60FFF7DCFA386108E0FFF7D8FAD5
:101E5C0002463B69D31A022B01D9032320E0124B13
:101E6C001B6803F00073002BF0D118E07B68DB6972
:101E7C00012B01D1012313E00B4B5B68FB60FB686A
:101E8C0003F480327B681B6A9A4206D1FB6803F428
:101E9C0070127B685B6A9A4201D0012300E0002338
:101EAC0018461837BD4680BD001002400070004037
:101EBC006000424280B584B000AF786039607B68C6
:101ECC00002B01D10123D0E06A4B1B6803F0070300
:101EDC003A689A4210D9674B1B6823F00702654990
:101EEC003B6813430B60634B1B6803F007033A68B2
:101EFC009A4201D00123B8E07B681B6803F002030F
:101F0C00002B20D07B681B6803F00403002B05D04A
:101F1C00594B5B68584A43F4E06353607B681B6819
:101F2C0003F00803002B05D0534B5B68524A43F473
:101F3C0060535360504B5B6823F0F0027B689B68E6
:101F4C004D4913434B607B681B6803F00103002B66
:101F5C0040D07B685B68012B07D1474B1B6803F4AF
:101F6C000033002B15D101237FE07B685B68022BCB
:101F7C0007D1414B1B6803F00073002B09D10123DF
:101F8C0073E03D4B1B6803F00203002B01D10123CE
:101F9C006BE0394B5B6823F003027B685B68364966
:101FAC0013434B60FFF72CFAF8600AE0FFF728FAAE
:101FBC000246FB68D31A41F28832934201D90323BB
:101FCC0053E02D4B5B6803F00C027B685B689B0055
:101FDC009A42EBD1274B1B6803F007033A689A42ED
:101FEC0010D2244B1B6823F0070222493B68134391
:101FFC000B60204B1B6803F007033A689A4201D030
:10200C00012332E07B681B6803F00403002B08D02B
:10201C00194B5B6823F4E0627B68DB681649134359
:10202C004B607B681B6803F00803002B09D0124B34
:10203C005B6823F460527B681B69DB000E49134319
:10204C004B6000F021F802460B4B5B681B0903F058
:10205C000F030A49CB5C22FA03F3094A1360094BBC
:10206C001B681846FFF78AF9002318461037BD463F
:10207C0080BD00BF0020024000100240A0290008D3
:10208C00400000204800002080B487B000AF00233F
:10209C00FB600023BB6000237B6100237B6000237B
:1020AC003B611E4B5B68FB60FB6803F00C03042B6D
:1020BC0002D0082B03D027E0194B3B6127E0FB68CB
:1020CC009B0C03F00F03174AD35C7B60FB6803F493
:1020DC008033002B10D0114B5B685B0C03F00103B9
:1020EC00114AD35CBB607B680D4A02FB03F2BB68F0
:1020FC00B2FBF3F37B6104E07B680C4A02FB03F355
:10210C007B617B693B6102E0054B3B6100BF3B6936
:10211C0018461C37BD4680BC704700BF00100240FB
:10212C0000127A00B0290008C029000800093D00FF
:10213C0080B485B000AF78600A4B1B680A4AA2FBDA
:10214C0003235B0A7A6802FB03F3FB6000BFFB68A6
:10215C005A1EFA60002BF9D100BF00BF1437BD46E0
:10216C0080BC704740000020D34D621080B582B017
:10217C0000AF78607B68002B01D1012341E07B68C4
:10218C0093F83D30DBB2002B06D17B68002283F83C
:10219C003C207868FEF7FCFF7B68022283F83D2028
:1021AC007B681A687B6804331946104600F056FAAF
:1021BC007B68012283F846207B68012283F83E204D
:1021CC007B68012283F83F207B68012283F8402042
:1021DC007B68012283F841207B68012283F842202E
:1021EC007B68012283F843207B68012283F844201A
:1021FC007B68012283F845207B68012283F83D200F
:10220C00002318460837BD4680BD000080B485B059
:10221C0000AF78607B6893F83D30DBB2012B01D0C6
:10222C00012335E07B68022283F83D207B681B6824
:10223C00DA687B681B6842F00102DA607B681B6815
:10224C00164A934209D07B681B68B3F1804F04D0C7
:10225C007B681B68124A934211D17B681B689B6890
:10226C0003F00703FB60FB68062B10D07B681B6830
:10227C001A687B681B6842F001021A6007E07B68F1
:10228C001B681A687B681B6842F001021A60002305
:10229C0018461437BD4680BC704700BF002C014067
:1022AC000004004080B584B000AF78607B681B6888
:1022BC00DB68FB607B681B681B69BB60BB6803F059
:1022CC000203002B20D0FB6803F00203002B1BD071
:1022DC007B681B686FF002021A617B6801221A7717
:1022EC007B681B689B6903F00303002B03D07868A1
:1022FC0000F098F905E0786800F08BF9786800F048
:10230C009AF97B6800221A77BB6803F00403002B50
:10231C0020D0FB6803F00403002B1BD07B681B68E8
:10232C006FF004021A617B6802221A777B681B68C3
:10233C009B6903F44073002B03D0786800F072F9AA
:10234C0005E0786800F065F9786800F074F97B684E
:10235C0000221A77BB6803F00803002B20D0FB681F
:10236C0003F00803002B1BD07B681B686FF008027E
:10237C001A617B6804221A777B681B68DB6903F09F
:10238C000303002B03D0786800F04CF905E0786863
:10239C0000F03FF9786800F04EF97B6800221A775C
:1023AC00BB6803F01003002B20D0FB6803F0100374
:1023BC00002B1BD07B681B686FF010021A617B68C6
:1023CC0008221A777B681B68DB6903F44073002BC7
:1023DC0003D0786800F026F905E0786800F019F968
:1023EC00786800F028F97B6800221A77BB6803F044
:1023FC000103002B0CD0FB6803F00103002B07D06A
:10240C007B681B686FF001021A617868FEF77CFE2E
:10241C00BB6803F08003002B0CD0FB6803F0800337
:10242C00002B07D07B681B686FF080021A617868FC
:10243C0000F06FFABB6803F04003002B0CD0FB6874
:10244C0003F04003002B07D07B681B686FF0400241
:10245C001A61786800F0F8F8BB6803F02003002BD1
:10246C000CD0FB6803F02003002B07D07B681B68A3
:10247C006FF020021A61786800F042FA00BF103742
:10248C00BD4680BD80B584B000AF78603960002354
:10249C00FB737B6893F83C30012B01D10223B4E031
:1024AC007B68012283F83C207B68022283F83D2064
:1024BC007B681B689B68BB60BB6823F07703BB60C1
:1024CC00BB6823F47F43BB607B681B68BA689A6067
:1024DC003B681B68B3F5005F3ED0B3F5005F00F2BC
:1024EC008780B3F5805F00F08680B3F5805F7FD87E
:1024FC00702B1AD0702B7BD8602B50D0602B77D8D8
:10250C00502B3CD0502B73D8402B58D0402B6FD82D
:10251C00302B64D0302B6BD8202B60D0202B67D87D
:10252C00002B5CD0102B5AD062E07B6818683B689B
:10253C0099683B685A683B68DB6800F06AF97B680D
:10254C001B689B68BB60BB6843F07703BB607B6810
:10255C001B68BA689A604FE07B6818683B6899689A
:10256C003B685A683B68DB6800F053F97B681B6872
:10257C009A687B681B6842F480429A603CE07B68F6
:10258C0018683B6859683B68DB681A4600F0CAF863
:10259C007B681B685021184600F021F92CE07B6801
:1025AC0018683B6859683B68DB681A4600F0E8F825
:1025BC007B681B686021184600F011F91CE07B68F1
:1025CC0018683B6859683B68DB681A4600F0AAF843
:1025DC007B681B684021184600F001F90CE07B6811
:1025EC001A683B681B681946104600F0F8F803E0BF
:1025FC000123FB7300E000BF7B68012283F83D20C0
:10260C007B68002283F83C20FB7B18461037BD46C4
:10261C0080BD80B483B000AF786000BF0C37BD467E
:10262C0080BC704780B483B000AF786000BF0C37BB
:10263C00BD4680BC704780B483B000AF786000BFEB
:10264C000C37BD4680BC704780B483B000AF786057
:10265C0000BF0C37BD4680BC7047000080B485B00D
:10266C0000AF786039607B681B68FB607B682B4A25
:10267C00934207D07B68B3F1804F03D07B68284A24
:10268C00934208D1FB6823F07003FB603B685B68E6
:10269C00FA681343FB607B68204A934207D07B683F
:1026AC00B3F1804F03D07B681D4A934208D1FB687D
:1026BC0023F44073FB603B68DB68FA681343FB60F0
:1026CC00FB6823F080023B685B691343FB607B680B
:1026DC00FA681A603B689A687B68DA623B681A6829
:1026EC007B689A627B680D4A934203D13B681A69F6
:1026FC007B681A637B6801225A617B681B6903F053
:10270C000103002B05D07B681B6923F001027B6859
:10271C001A6100BF1437BD4680BC7047002C0140C5
:10272C000004004080B487B000AFF860B9607A60F4
:10273C00FB681B6A7B61FB681B6A23F00102FB6868
:10274C001A62FB689B693B613B6923F0F0033B61B8
:10275C007B681B013A6913433B617B6923F00A03D5
:10276C007B617A69BB6813437B61FB683A699A6148
:10277C00FB687A691A6200BF1C37BD4680BC704783
:10278C0080B487B000AFF860B9607A60FB681B6AF0
:10279C007B61FB681B6A23F01002FB681A62FB6802
:1027AC009B693B613B6923F470433B617B681B0372
:1027BC003A6913433B617B6923F0A0037B61BB68DF
:1027CC001B017A6913437B61FB683A699A61FB6868
:1027DC007A691A6200BF1C37BD4680BC704780B452
:1027EC0085B000AF786039607B689B68FB60FB68E4
:1027FC0023F07003FB603A68FB68134343F0070354
:10280C00FB607B68FA689A6000BF1437BD4680BCD9
:10281C00704780B487B000AFF860B9607A603B60F5
:10282C00FB689B687B617B6923F47F437B613B681E
:10283C001A027B681A43BB6813437A6913437B61A2
:10284C00FB687A699A6000BF1C37BD4680BC704734
:10285C0080B485B000AF786039607B6893F83C3009
:10286C00012B01D1022341E07B68012283F83C203B
:10287C007B68022283F83D207B681B685B68FB60E9
:10288C007B681B689B68BB60FB6823F07003FB6074
:10289C003B681B68FA681343FB607B681B68FA682B
:1028AC005A607B681B68144A934209D07B681B688A
:1028BC00B3F1804F04D07B681B68104A93420CD153
:1028CC00BB6823F08003BB603B685B68BA6813434A
:1028DC00BB607B681B68BA689A607B68012283F8CE
:1028EC003D207B68002283F83C20002318461437D7
:1028FC00BD4680BC704700BF002C01400004004066
:10290C0080B483B000AF786000BF0C37BD4680BC8C
:10291C00704780B483B000AF786000BF0C37BD4601
:10292C0080BC704770B500260C4D0D4C641BA41078
:10293C00A64209D100F022F800260A4D0A4C641B6D
:10294C00A410A64205D170BD55F8043B984701363A
:10295C00EEE755F8043B98470136F2E7C429000826
:10296C00C4290008C4290008C829000803460244E9
:10297C00934200D1704703F8011BF9E7F8B500BF8B
:10298C00F8BC08BC9E467047F8B500BFF8BC08BC44
:04299C009E4670479C
:1029A00000000000000000000102030406070809FF
:1029B00002030405060708090A0B0C0D0E0F101080
:0429C0000102000010
:0429C40031010008D5
:0429C8000D010008F5
:1029CC0001000000000000000000000001000000F9
:1029DC0000000000000000000100000000000000EA
:1029EC0000000000010000000000000000000000DA
:1029FC00F401000088130000D0070000B80B0000A1
:102A0C0000127A000A000000100000000100000013
:0400000508001311CB
:00000001FF
